:020000040800F2
:10000000400400200D1000083D10000841100008B9
:1000100045100008491000084D10000800000000BD
:100020000000000000000000000000005110000867
:100030005510000800000000591000085D1000086D
:100040006110000865100008691000086D100008B4
:100050007110000875100008791000087D10000864
:100060008110000885100008891000088D10000814
:100070009110000895100008991000089D100008C4
:10008000A1100008A5100008A9100008AD10000874
:10009000B1100008B5100008B9100008BD10000824
:1000A000C1100008C5100008C9100008CD100008D4
:1000B000D1100008D5100008750B0008DD100008ED
:1000C000E1100008E5100008E9100008ED10000834
:1000D000F1100008E9070008F9100008FD100008F9
:1000E0000111000805110008091100080D11000890
:1000F0001111000815110008191100081D11000840
:100100002111000825110008710E00082D110008AA
:100110003111000835110008391100083D1100089F
:100120004111000845110008491100084D1100084F
:10013000DFF8E402006850F00100DFF8DC1208602C
:10014000DFF8D8020068DFF8D8120840DFF8CC12D8
:100150000860DFF8C4020068DFF8C8120840DFF862
:10016000B8120860DFF8B002006830F48020DFF8D1
:10017000A8120860DFF8A402006830F4FE00DFF87F
:100180009C1208605FF41F00DFF89C120860704743
:10019000DFF88412096831F48031DFF87C221160C5
:1001A000DFF87412096831F48021DFF86C221160E5
:1001B0000100B1F5803F03D0B1F5802F09D011E0E7
:1001C000DFF85412096851F48031DFF84C221160D5
:1001D00008E0DFF84412096851F4A021DFF8382262
:1001E0001160FFE7704738B500200090002400251B
:1001F000312000F0E8F805000098401C00900098BD
:10020000B0F5A06F02D0EDB2002DF1D0312000F09A
:10021000DAF8002802D00120040001E000200400E8
:100220002000C0B232BD0022DFF8F0311B681A0096
:1002300032F47C1251EA00031A43DFF8E0311A600D
:100240007047C0B2DFF8E411086070470021734ABC
:1002500012681100890889000143704A11607047D3
:100260006E48006810F00C00704700216B4A12685D
:10027000110031F0F0010143684A1160704700211C
:10028000664A1268110031F4E0610143634A11606B
:1002900070470021614A1268110031F4605151EA3F
:1002A000C0015E4A1160704770B400210022002333
:1002B00000245A4D2D6815F00C0529000D00002D65
:1002C00004D0042D05D0082D06D026E0594D056038
:1002D00025E0584D056022E0504D2D6815F470154D
:1002E0002A004E4D2D6815F480352B00920C921C7F
:1002F000002B04D1504D05FB02F505600CE0474D85
:100300002D68AD0304D54C4D05FB02F5056003E0F7
:10031000484D05FB02F5056001E0464D05603F4D87
:100320002D6815F0F00529000909444D4D5D2C009C
:1003300005682E00E6404660384D2D6815F4E065EE
:100340002900090A3D4D4D5D2C0045682E00E64010
:100350008660324D2D6815F460552900C90A374D65
:100360004D5D2C0045682E00E640C6602B4D2D6883
:1003700015F440452900890B314D4D5D2C00C568B1
:10038000B5FBF4F5056170BC7047C9B2002905D012
:100390002C4A126802432B4B1A6004E0294A126867
:1003A0008243284B1A607047C9B2002905D0264AFB
:1003B00012680243244B1A6004E0234A1268824305
:1003C000214B1A60704710B4010000220023002066
:1003D000C9B24C09E4B22200012A03D10E4C2468B0
:1003E000230008E0022A03D1114C2468230002E014
:1003F000164C24682300C9B211F01F0422001C000F
:10040000D440E40702D50124200001E000242000AC
:10041000C0B210BC7047000000100240041002403F
:100420000000FFF8FFFFF6FE0810024060004242A5
:100430002010024000127A0000093D000000002058
:1004400020000020181002401C100240241002401E
:100450002DE9F04786B004000D00002600275FF06C
:1004600000085FF000095FF0000AA8890028A24692
:10047000208A06004CF6FF700640E8880643268274
:10048000A08906004EF6F3100640A8882989084383
:10049000698908430643A681A08A06004FF6FF40FB
:1004A0000640A8890643A68200A8FFF7FDFE204863
:1004B000824502D10398070001E002980700A08955
:1004C000000408D5192000FB07F029684900B0FB9B
:1004D000F1F0804607E0192000FB07F02968890049
:1004E000B0FBF1F080466420B8FBF0F0000106009C
:1004F0003009642101FB10808146A089000409D5E0
:100500005FEAC90032306421B0FBF1F010F007005F
:10051000064308E05FEA091032306421B0FBF1F0D5
:1005200010F00F000643268106B0BDE8F0870000FA
:1005300000380140C9B2002904D0828952F4005227
:10054000828104E082894DF6FF731A4082817047F0
:10055000F0B4002300240025002689B240F66A1773
:10056000B94206000F00FFB27F09FFB23B0089B21B
:1005700011F01F073C000127A7403D00012B01D1CE
:100580000C3604E0022B01D1103600E01436D2B252
:10059000002A03D037682F43376002E03768AF4343
:1005A0003760F0BC7047CA05D20D828070470200E8
:1005B000002089B2B1F5007F13880B4202D00123DD
:1005C000180001E000231800C0B2704770B40200A8
:1005D000002300250024002089B240F66A16B142AB
:1005E0000E00F6B27609F6B2340089B211F01F0699
:1005F0003500012616FA05F5012C02D19689354001
:1006000006E0022C02D1168A354001E0968A354078
:1006100089B20E0AB6B23300012616FA03F3168821
:100620003340002D04D0002B02D00126300001E021
:1006300000263000C0B270BC704710B40022002306
:1006400089B240F66A14A14289B20C0A2200012440
:10065000944023009BB2DC43048010BC7047000030
:1006600010B586B004004FF40070ADF80000032010
:100670008DF8020018208DF8030000A9634800F0EF
:10068000CDF84FF48060ADF8000004208DF8030031
:1006900000A95E4800F0C2F802940020ADF80C00FA
:1006A0000020ADF80E000020ADF810000020ADF8DD
:1006B00014000C20ADF8120002A95548FFF7C8FE3F
:1006C00001215348FFF736FF012240F225515048DF
:1006D000FFF73EFF25208DF8040001208DF807006C
:1006E00001208DF8050001208DF8060001A800F01A
:1006F00043F906B010BD70B504000D000026AE42EF
:100700000DDA217889B24248FFF74DFF641C802141
:100710003F48FFF74CFF0128F9D1761CEFE770BD89
:100720003030C0B27047010000203A4A91FBF2F22B
:10073000012A02DB0622100023E042F2107291FB34
:10074000F2F2012A02DB052210001AE04FF47A725D
:1007500091FBF2F2012A02DB0422100011E0642274
:1007600091FBF2F2012A02DB0322100009E00A22C7
:1007700091FBF2F2012A02DB0222100001E00122C9
:10078000100070472DE9F04188B004000D000026EC
:1007900000272000FFF7C7FF060027000020B04217
:1007A0000CDA0A2197FBF1F201FB127100AA42F860
:1007B00020100A2197FBF1F7401CF0E75FF00008DA
:1007C000B0450DDA00A8B6EB080110EB810050F837
:1007D000040CFFF7A5FF08F8050018F10108EFE782
:1007E000300008B0BDE8F08180B540F225510848DE
:1007F000FFF7ECFE002802D001200749087040F204
:1008000025510348FFF719FF01BD00000008014012
:1008100000380140A086010038000020F0B5002714
:100820000022002300240025002691F803C01CF0BC
:100830000F0C674691F803C05FEACC6C03D591F8C2
:1008400002C05CEA070791F800C05FEA0C6C3AD07E
:10085000D0F800C065465FF0000C6346082B31D22B
:100860005FF0010C1CFA03FC6446B1F800C014EA06
:100870000C0C6246A24223D15FEA830C64465FF00F
:100880000F0C1CFA04FC6646B54317FA04FC5CEA3C
:10089000050591F803C0BCF1280F06D15FF0010CEB
:1008A0001CFA03FCC0F814C00AE091F803C0BCF1C4
:1008B000480F05D15FF0010C1CFA03FCC0F810C012
:1008C0005B1CCBE70560B1F800C0BCF1FF0F3FDD5A
:1008D000D0F804C065465FF0000C6346082B36D2A2
:1008E0005FF0010C13F1080E1CFA0EFC6446B1F81F
:1008F00000C014EA0C0C6246A24226D15FEA830CC7
:1009000064465FF00F0C1CFA04FC6646B54317FA08
:1009100004FC5CEA050591F803C0BCF1280F07D17F
:100920005FF0010C13F1080E1CFA0EFCC0F814C0A5
:1009300091F803C0BCF1480F07D15FF0010C13F12F
:10094000080E1CFA0EFCC0F810C05B1CC6E7456020
:10095000F0BD02000020936889B20B4202D001234F
:10096000180001E000231800C0B2704789B201618D
:10097000704789B24161704770B4002400220F2390
:10098000C178002922D01F49096811F4E061D1F52E
:10099000E061090A0C00D4F104010A0019000B00FF
:1009A000E340417891400C00817819400C432401C8
:1009B000154905786C540121057815F01F05A940EB
:1009C000124D0678761145F8261009E001210578C8
:1009D00015F01F05A9400E4D0678761145F8261032
:1009E00070BC7047042806D10A49096851F0040117
:1009F000084A116005E00749096831F00401054A19
:100A0000116070470CED00E000E400E000E100E060
:100A100080E100E010E000E080B54F48006850F051
:100A200001004D4908604D4800684D4908404B4958
:100A30000860494800684B490840474908604648F3
:100A4000006830F48020444908604448006830F46D
:100A5000FE00424908605FF41F004349086000F04F
:100A600005F85FF000604149086001BD80B500F005
:100A700001F801BD82B000200190002000903648AE
:100A8000006850F48030344908603348006810F43E
:100A9000003000900198401C01900098002803D17C
:100AA0000198B0F5A06FF0D12B480068800302D503
:100AB0000120009001E0002000900098012847D11B
:100AC0002B48006850F01000294908602848006849
:100AD00080088000264908602548006850F0020020
:100AE000234908601D4800681C4908601B480068CD
:100AF0001A4908601948006850F480601749086076
:100B00001648006830F47C101449086013480068E7
:100B100050F4E810114908600F48006850F08070E8
:100B20000D4908600C4800688001FBD50B4800683F
:100B300080088000094908600848006850F00200F9
:100B4000064908600548006810F00C000828F9D133
:100B500002B0704700000000001002400410024084
:100B60000000FFF8FFFFF6FE0810024008ED00E06D
:100B70000020024010B5002410213B4800F098F8F6
:100B8000002865D04FF400713648FFF7E2FE0128D7
:100B90000DD100F0FEF80221334800F07AF8002170
:100BA000314800F080F801203049087050E000F032
:100BB000F6F82D4800F079F8040000212A4800F0EA
:100BC00068F82A48007800283FD029480078002893
:100BD00031D0B4F5967F0CDDB4F5487F09DA2548AD
:100BE00000684000234908602248006821490860E5
:100BF0002BE0B4F5AF6F0EDDB4F5E16F0BDA1D48F5
:100C0000006840001B4908601A48006850F0010065
:100C10001849086019E040F69900844215DBB4F5E4
:100C20002F6F12DA14480068401C13490860012035
:100C30001249087009E041F26900844205DBB4F50D
:100C4000965F02DA01200A490870002007490870FF
:100C50000121054800F02CF81121034800F041F86B
:100C600010BD0000000C01400008004036000020CC
:100C7000350000202C00002030000020370000202C
:100C80000022038C1A004FF6FD731A400A430284B7
:100C900070470022038C1A004DF6FF731A4052EA87
:100CA00001320284704781847047B0F84000704779
:100CB00030B40200002000230024158A0D402B00D0
:100CC00095890D402C009BB2002B05D0A4B2002CBE
:100CD00002D00125280001E000252800C0B230BC68
:100CE000704789B2CA4302827047000010B5FFF70F
:100CF0001FFA5FF48030FFF74BFAFFF774FA040035
:100D0000E4B2012C24D1102000F078F8022000F089
:100D100069F80020FFF7A9FA0020FFF7BAFA4FF4AC
:100D20008060FFF7ACFA5FF4E0115FF48030FFF70A
:100D30007AFA0120FFF785FA3920FFF744FB0028F3
:100D4000FAD00220FFF782FAFFF78AFA0828FBD1CF
:100D500001214CF6FD10FFF718FB01211648FFF7A3
:100D600023FB10BD80B52020ADF8000001208DF8D8
:100D7000020010208DF8030000A91048FFF74EFD77
:100D800000A90F48FFF74AFD00F00FF800F007F840
:100D900001BD80B520210948FFF7EBFD01BD80B5FD
:100DA00020210648FFF7E2FD01BD80B5202104485F
:100DB000FFF7DCFD01BD00000E40200000180140DF
:100DC000000C014080B5FFF791FFFFF7CBFF5FF408
:100DD000E130FFF745FC00F023F85FF4E13000F06C
:100DE0003BF8FEE70021DFF834201268110011F013
:100DF00038010143DFF8242011607047DFF81C1030
:100E0000096831F01001DFF814201160DFF80C10D0
:100E100009680143DFF80420116070470020024098
:100E200080B57FF00400FFF7DDFD01BD3EB5040095
:100E300000A80021002200230EC00C3800A92000C9
:100E4000FFF7A0FC050008210848FFF754FC290023
:100E500000A8FFF750FC37BD10B504002000FFF7D5
:100E6000FFFB2000FFF7E2FF10BD00001C10000890
:100E700080B502212648FFF71BFF002836D0254801
:100E80000078012810D0012022490870FFF781FF67
:100E900000211F48FFF707FF00201F4908600221BB
:100EA0001B48FFF7EDFE1CE000201A490870FFF711
:100EB00076FF1A4918480068FFF764FC1849086073
:100EC000174801681548FFF716FC07211548FFF77A
:100ED00012FC03210DA0FFF70EFC00210C48FFF7C8
:100EE000CFFE02210A48FFF7FCFE0EE00121084870
:100EF000FFF7DEFE002808D007480068401C0649BE
:100F0000086001210248FFF7ECFE01BD0D0A000058
:100F1000000C0040340000202400002018000020B5
:100F2000280000203410000880B500F015F80200F9
:100F30000023DB431068984204D011000220ABBEAE
:100F4000002010605068984204D0111D0220ABBEF2
:100F50000020506001BD00000048704710000020D4
:100F600010B450F8041B79B10268436812180830B5
:100F7000DC0744BFA9F10104E31852F8044B43F81D
:100F8000044B091FF9D1ECE710BC704710B50749B5
:100F900079441831064C7C44163404E00A68081D74
:100FA000511888470146A142F8D110BD0800000041
:100FB00018000000ADFFFFFF3C000000940100009E
:100FC000000000200000000000F00BF8002801D015
:100FD000FFF7DCFF0020C046C046FFF7F3FE00F03D
:100FE00002F80120704700F001B8000007463846BB
:100FF00000F002F8FBE7000080B5FFF795FF024A1A
:1010000011001820ABBEFBE7260002000148804714
:1010100001480047190A00082910000841542B55BF
:101020004152543D00000000C046C046C046C04684
:10103000FFF7CAFF2A31303075730000FFF7FEBF9B
:10104000FFF7FEBFFFF7FEBFFFF7FEBFFFF7FEBFD4
:10105000FFF7FEBFFFF7FEBFFFF7FEBFFFF7FEBFC4
:10106000FFF7FEBFFFF7FEBFFFF7FEBFFFF7FEBFB4
:10107000FFF7FEBFFFF7FEBFFFF7FEBFFFF7FEBFA4
:10108000FFF7FEBFFFF7FEBFFFF7FEBFFFF7FEBF94
:10109000FFF7FEBFFFF7FEBFFFF7FEBFFFF7FEBF84
:1010A000FFF7FEBFFFF7FEBFFFF7FEBFFFF7FEBF74
:1010B000FFF7FEBFFFF7FEBFFFF7FEBFFFF7FEBF64
:1010C000FFF7FEBFFFF7FEBFFFF7FEBFFFF7FEBF54
:1010D000FFF7FEBFFFF7FEBFFFF74CBDFFF7FEBFF8
:1010E000FFF7FEBFFFF7FEBFFFF7FEBFFFF7FEBF34
:1010F000FFF7FEBFFFF778BBFFF7FEBFFFF7FEBFAE
:10110000FFF7FEBFFFF7FEBFFFF7FEBFFFF7FEBF13
:10111000FFF7FEBFFFF7FEBFFFF7FEBFFFF7FEBF03
:10112000FFF7FEBFFFF7FEBFFFF7A2BEFFF7FEBF50
:10113000FFF7FEBFFFF7FEBFFFF7FEBFFFF7FEBFE3
:10114000FFF7FEBFFFF7FEBFFFF7FEBFFFF7FEBFD3
:10115000000000000102030401020304060708095D
:10116000FFFFFFFFFFFFFFFF000000000000000087
:10117000020406080000000000000000000000005B
:0C11800000000000000000000000000063
:0400000508001029B6
:00000001FF
