:020000040800F2
:1000000030040020051000083510000839100008E1
:100010003D100008411000084510000800000000D5
:10002000000000000000000000000000491000086F
:100030004D10000800000000511000085510000885
:10004000591000085D1000086110000865100008D4
:10005000691000086D100008711000087510000884
:10006000791000087D100008811000088510000834
:10007000891000088D1000089110000895100008E4
:10008000991000089D100008A1100008A510000894
:10009000A9100008AD100008B1100008B510000844
:1000A000B9100008BD100008C1100008C5100008F4
:1000B000C9100008CD100008D90B0008D5100008A1
:1000C000D9100008DD100008E1100008E510000854
:1000D000E9100008ED100008F1100008F510000804
:1000E000F9100008FD1000080111000805110008B2
:1000F000091100080D110008111100081511000860
:10010000191100081D110008A10E00082511000892
:10011000291100082D1100083111000835110008BF
:10012000391100083D11000841110008451100086F
:10013000DFF8E402006850F00100DFF8DC1208602C
:10014000DFF8D8020068DFF8D8120840DFF8CC12D8
:100150000860DFF8C4020068DFF8C8120840DFF862
:10016000B8120860DFF8B002006830F48020DFF8D1
:10017000A8120860DFF8A402006830F4FE00DFF87F
:100180009C1208605FF41F00DFF89C120860704743
:10019000DFF88412096831F48031DFF87C221160C5
:1001A000DFF87412096831F48021DFF86C221160E5
:1001B0000100B1F5803F03D0B1F5802F09D011E0E7
:1001C000DFF85412096851F48031DFF84C221160D5
:1001D00008E0DFF84412096851F4A021DFF8382262
:1001E0001160FFE7704738B500200090002400251B
:1001F000312000F0E8F805000098401C00900098BD
:10020000B0F5A06F02D0EDB2002DF1D0312000F09A
:10021000DAF8002802D00120040001E000200400E8
:100220002000C0B232BD0022DFF8F0311B681A0096
:1002300032F47C1251EA00031A43DFF8E0311A600D
:100240007047C0B2DFF8E411086070470021734ABC
:1002500012681100890889000143704A11607047D3
:100260006E48006810F00C00704700216B4A12685D
:10027000110031F0F0010143684A1160704700211C
:10028000664A1268110031F4E0610143634A11606B
:1002900070470021614A1268110031F4605151EA3F
:1002A000C0015E4A1160704770B400210022002333
:1002B00000245A4D2D6815F00C0529000D00002D65
:1002C00004D0042D05D0082D06D026E0594D056038
:1002D00025E0584D056022E0504D2D6815F470154D
:1002E0002A004E4D2D6815F480352B00920C921C7F
:1002F000002B04D1504D05FB02F505600CE0474D85
:100300002D68AD0304D54C4D05FB02F5056003E0F7
:10031000484D05FB02F5056001E0464D05603F4D87
:100320002D6815F0F00529000909444D4D5D2C009C
:1003300005682E00E6404660384D2D6815F4E065EE
:100340002900090A3D4D4D5D2C0045682E00E64010
:100350008660324D2D6815F460552900C90A374D65
:100360004D5D2C0045682E00E640C6602B4D2D6883
:1003700015F440452900890B314D4D5D2C00C568B1
:10038000B5FBF4F5056170BC7047C9B2002905D012
:100390002C4A126802432B4B1A6004E0294A126867
:1003A0008243284B1A607047C9B2002905D0264AFB
:1003B00012680243244B1A6004E0234A1268824305
:1003C000214B1A60704710B4010000220023002066
:1003D000C9B24C09E4B22200012A03D10E4C2468B0
:1003E000230008E0022A03D1114C2468230002E014
:1003F000164C24682300C9B211F01F0422001C000F
:10040000D440E40702D50124200001E000242000AC
:10041000C0B210BC7047000000100240041002403F
:100420000000FFF8FFFFF6FE0810024060004242A5
:100430002010024000127A0000093D000000002058
:1004400018000020181002401C1002402410024026
:1004500080B54FF48050ADF8000003208DF8020005
:1004600010208DF8030000A9834800F00FF9202028
:10047000ADF8000000A9814800F008F91020ADF89F
:10048000000000A97D4800F001F90120ADF800004E
:1004900010208DF8030000A9794800F0F7F801203A
:1004A000ADF8000010208DF8030000A9724800F09C
:1004B000EDF84CF20370ADF8000010208DF8030049
:1004C00000A96E4800F0E2F84FF68070ADF8000029
:1004D00010208DF8030000A96A4800F0D7F84CF20C
:1004E0003371664800F07DF90121654800F079F923
:1004F00041F20101604800F074F94FF680716148E3
:1005000000F06FF901BD10B50400A10389B25B488A
:1005100000F067F9C4F3810189B2584800F061F92D
:10052000A4B2600910F4E061544800F05AF9C4F331
:100530000810C10189B2534800F053F910BDF8B555
:1005400000260027002400254C4800F047F980B21F
:10055000800B0600494800F041F980000700494837
:1005600000F03CF980B2C0080400444800F036F9BD
:1005700040010500F81C304014F10C01084005F55D
:10058000F851F031084010F46040F2BD10B504009D
:100590004FF48051384800F027F90121364800F027
:1005A00023F91021354800F01CF92021334800F0D0
:1005B0001BF9200080B2FFF7A6FF20212F4800F092
:1005C00010F94FF480512C4800F00BF910BD10B514
:1005D0004FF48051284800F007F90121264800F027
:1005E00000F91021254800F0FFF8FFF7A8FF0400EC
:1005F0001021224800F0F5F84FF480511E4800F019
:10060000F0F8200080B210BD38B500240025D320BA
:10061000FFF7BCFFD320FFF7B9FFFFF7D8FFFFF7C5
:10062000D6FFFFF7D4FF0400FFF7D1FF0500A4B207
:1006300015F1080014FA00F0C0B232BD30B585B033
:100640000024FFF7E1FF040000A9A4B2200000F09D
:100650004DF9050009210C4800F000F9EDB2290020
:1006600000A800F0FBF8032102A000F0F7F805B0A5
:1006700030BD00000D0A00000020014000140140C0
:10068000000C01400018014014100008F0B50027CC
:100690000022002300240025002691F803C01CF04E
:1006A0000F0C674691F803C05FEACC6C03D591F854
:1006B00002C05CEA070791F800C05FEA0C6C3AD010
:1006C000D0F800C065465FF0000C6346082B31D2BD
:1006D0005FF0010C1CFA03FC6446B1F800C014EA98
:1006E0000C0C6246A24223D15FEA830C64465FF0A1
:1006F0000F0C1CFA04FC6646B54317FA04FC5CEACE
:10070000050591F803C0BCF1280F06D15FF0010C7C
:100710001CFA03FCC0F814C00AE091F803C0BCF155
:10072000480F05D15FF0010C1CFA03FCC0F810C0A3
:100730005B1CCBE70560B1F800C0BCF1FF0F3FDDEB
:10074000D0F804C065465FF0000C6346082B36D233
:100750005FF0010C13F1080E1CFA0EFC6446B1F8B0
:1007600000C014EA0C0C6246A24226D15FEA830C58
:1007700064465FF00F0C1CFA04FC6646B54317FA9A
:1007800004FC5CEA050591F803C0BCF1280F07D111
:100790005FF0010C13F1080E1CFA0EFCC0F814C037
:1007A00091F803C0BCF1480F07D15FF0010C13F1C1
:1007B000080E1CFA0EFCC0F810C05B1CC6E74560B2
:1007C000F0BD02000020936889B20B4202D00123E1
:1007D000180001E000231800C0B27047C06880B262
:1007E000704789B20161704789B24161704700006A
:1007F00010B586B004004FF40070ADF8000003207F
:100800008DF8020018208DF8030000A91E48FFF79C
:100810003DFF4FF48060ADF8000004208DF8030028
:1008200000A91948FFF732FF01940020ADF8080035
:100830000020ADF80A000020ADF80C000020ADF853
:1008400010000C20ADF80E0001A9104800F082F84D
:1008500001210E4800F0F0F806B010BD70B504009C
:100860000D000026AE420DDA217889B2074800F06B
:10087000F1F8641C8021054800F0F0F80128F9D156
:10088000761CEFE770BD0000000801400038014011
:100890003030C0B270470100002089B242F21072BD
:1008A00091FBF2F2012A02DB052210001DE089B261
:1008B0004FF47A7291FBF2F2012A02DB042210005B
:1008C00013E089B2642291FBF2F2012A02DB0322D7
:1008D00010000AE089B20A2291FBF2F2012A02DB3F
:1008E0000222100001E00122100070472DE9F041C2
:1008F00088B004000D0000260027200080B2FFF71A
:10090000CAFF060027000020B0420CDA0A2197FB3C
:10091000F1F201FB127100AA42F820100A2197FBA4
:10092000F1F7401CF0E75FF00008B0450DDA00A8D1
:10093000B6EB080110EB810050F8040CFFF7A8FF9C
:1009400008F8050018F10108EFE7300008B0BDE82D
:10095000F08100002DE9F04786B004000D0000266C
:1009600000275FF000085FF000095FF0000AA88927
:100970000028A246208A06004CF6FF700640E88850
:1009800006432682A08906004EF6F3100640A8888A
:1009900029890843698908430643A681A08A06007D
:1009A0004FF6FF400640A8890643A68200A8FFF73D
:1009B0007BFC2048824502D10398070001E00298A1
:1009C0000700A089000408D5192000FB07F029685A
:1009D0004900B0FBF1F0804607E0192000FB07F06A
:1009E00029688900B0FBF1F080466420B8FBF0F084
:1009F000000106003009642101FB10808146A089B6
:100A0000000409D55FEAC90032306421B0FBF1F07F
:100A100010F00700064308E05FEA09103230642155
:100A2000B0FBF1F010F00F000643268106B0BDE8E0
:100A3000F087000000380140C9B2002904D0828943
:100A400052F40052828104E082894DF6FF731A400D
:100A500082817047CA05D20D828070470200002053
:100A600089B2B1F5007F13880B4202D00123180030
:100A700001E000231800C0B27047000080B54F4865
:100A8000006850F001004D4908604D4800684D492C
:100A900008404B490860494800684B4908404749AD
:100AA00008604648006830F48020444908604448A3
:100AB000006830F4FE00424908605FF41F004349BB
:100AC000086000F005F85FF000604149086001BD72
:100AD00080B500F001F801BD82B000200190002037
:100AE00000903648006850F480303449086033483C
:100AF000006810F4003000900198401C01900098AC
:100B0000002803D10198B0F5A06FF0D12B48006800
:100B1000800302D50120009001E0002000900098A1
:100B2000012847D12B48006850F01000294908607F
:100B30002848006880088000264908602548006829
:100B400050F00200234908601D4800681C490860F5
:100B50001B4800681A4908601948006850F4806012
:100B6000174908601648006830F47C101449086082
:100B70001348006850F4E810114908600F480068F5
:100B800050F080700D4908600C4800688001FBD56A
:100B90000B48006880088000094908600848006820
:100BA00050F00200064908600548006810F00C008B
:100BB0000828F9D102B07047000000000010024080
:100BC000041002400000FFF8FFFFF6FE081002408C
:100BD00008ED00E00020024010B5002410213B4841
:100BE00000F098F8002865D04FF400713648FFF700
:100BF000E8FD01280DD100F0FFF80221334800F094
:100C00007AF80021314800F080F80120304908705E
:100C100050E000F0F7F82D4800F079F804000021CA
:100C20002A4800F068F82A48007800283FD0294870
:100C30000078002831D0B4F5967F0CDDB4F5487FFC
:100C400009DA254800684000234908602248006806
:100C5000214908602BE0B4F5AF6F0EDDB4F5E16F0C
:100C60000BDA1D48006840001B4908601A480068FC
:100C700050F001001849086019E040F699008442DC
:100C800015DBB4F52F6F12DA14480068401C1349C5
:100C9000086001201249087009E041F269008442AD
:100CA00005DBB4F5965F02DA01200A4908700020DE
:100CB000074908700121054800F02CF8112103486C
:100CC00000F041F810BD0000000C01400008004099
:100CD0002E0000202D0000202400002028000020ED
:100CE0002F0000200022038C1A004FF6FD731A40DB
:100CF0000A43028470470022038C1A004DF6FF73EA
:100D00001A4052EA01320284704781847047B0F879
:100D10004000704730B40200002000230024158AF0
:100D20000D402B0095890D402C009BB2002B05D067
:100D3000A4B2002C02D00125280001E000252800E3
:100D4000C0B230BC704789B2CA430282704700000B
:100D500010B5FFF7EDF95FF48030FFF719FAFFF7F0
:100D600042FA0400E4B2012C24D1102000F078F8FB
:100D7000022000F069F80020FFF777FA0020FFF763
:100D800088FA4FF48060FFF77AFA5FF4E0115FF4BD
:100D90008030FFF748FA0120FFF753FA3920FFF7B8
:100DA00012FB0028FAD00220FFF750FAFFF758FA9A
:100DB0000828FBD101214CF6FD10FFF7E6FA0121CE
:100DC00044F20E00FFF7F0FA10BD80B52020ADF818
:100DD000000001208DF8020010208DF8030000A90A
:100DE0000E48FFF753FC00A90D48FFF74FFC00F039
:100DF0000FF800F007F801BD80B520210748FFF784
:100E0000F3FC01BD80B520210448FFF7EAFC01BDD9
:100E100080B520210248FFF7E4FC01BD0018014025
:100E2000000C014080B5FFF793FFFFF7CEFF5FF4A2
:100E3000E130FFF7DDFCFFF70BFBFFF7FFFB4FF4A3
:100E40007A7000F01FF8F8E70021DFF8342012680C
:100E5000110011F038010143DFF8242011607047C0
:100E6000DFF81C10096831F01001DFF81420116060
:100E7000DFF80C1009680143DFF8042011607047A7
:100E8000002002400021814208DA002242F2FF13D2
:100E90009A4201DA521CF9E7491CF4E77047000056
:100EA00080B502212648FFF735FF002836D02548B7
:100EB0000078012810D0012022490870FFF79CFF1C
:100EC00000211F48FFF721FF00201F490860022171
:100ED0001B48FFF707FF1CE000201A490870FFF7C6
:100EE00091FF1A4918480068FFF700FD184908608B
:100EF000174801681548FFF7B1FC07211548FFF7AF
:100F0000ADFC03210DA0FFF7A9FC00210C48FFF761
:100F1000E9FE02210A48FFF716FF0EE0012108480A
:100F2000FFF7F8FE002808D007480068401C064973
:100F3000086001210248FFF706FF01BD0D0A00000D
:100F4000000C00402C0000201C000020100000209D
:100F5000200000202C10000810B450F8041B79B1B8
:100F60000268436812180830DC0744BFA9F1010485
:100F7000E31852F8044B43F8044B091FF9D1ECE78E
:100F800010BC704710B5074979441831064C7C44B1
:100F9000163404E00A68081D511888470146A1422A
:100FA000F8D110BD0800000018000000ADFFFFFFE1
:100FB000300000009401000000000020000000004C
:100FC00000F00BF8002801D0FFF7DCFF0020C0463E
:100FD000C046FFF727FF00F002F80120704700F03D
:100FE00001B800000746384600F002F8FBE70000B1
:100FF00080B5C046C046024A11001820ABBEFBE7D0
:101000002600020001488047014800477D0A000889
:10101000211000084C43444944206973000000003B
:10102000C046C046C046C046FFF7CAFF2A3130302E
:1010300075730000FFF7FEBFFFF7FEBFFFF7FEBFAF
:10104000FFF7FEBFFFF7FEBFFFF7FEBFFFF7FEBFD4
:10105000FFF7FEBFFFF7FEBFFFF7FEBFFFF7FEBFC4
:10106000FFF7FEBFFFF7FEBFFFF7FEBFFFF7FEBFB4
:10107000FFF7FEBFFFF7FEBFFFF7FEBFFFF7FEBFA4
:10108000FFF7FEBFFFF7FEBFFFF7FEBFFFF7FEBF94
:10109000FFF7FEBFFFF7FEBFFFF7FEBFFFF7FEBF84
:1010A000FFF7FEBFFFF7FEBFFFF7FEBFFFF7FEBF74
:1010B000FFF7FEBFFFF7FEBFFFF7FEBFFFF7FEBF64
:1010C000FFF7FEBFFFF7FEBFFFF7FEBFFFF7FEBF54
:1010D000FFF782BDFFF7FEBFFFF7FEBFFFF7FEBFC2
:1010E000FFF7FEBFFFF7FEBFFFF7FEBFFFF7FEBF34
:1010F000FFF7FEBFFFF7FEBFFFF7FEBFFFF7FEBF24
:10110000FFF7FEBFFFF7FEBFFFF7FEBFFFF7FEBF13
:10111000FFF7FEBFFFF7FEBFFFF7FEBFFFF7FEBF03
:10112000FFF7BEBEFFF7FEBFFFF7FEBFFFF7FEBF34
:10113000FFF7FEBFFFF7FEBFFFF7FEBFFFF7FEBFE3
:10114000FFF7FEBFFFF7FEBF00000000010203042F
:101150000102030406070809000000000000000067
:10116000020406080000000000000000000000006B
:08117000000000000000000077
:0400000508001021BE
:00000001FF
