:020000040800F2
:10000000E8060020158D0008458D0008498D000880
:100010004D8D0008518D0008558D0008000000002E
:10002000000000000000000000000000598D0008E2
:100030005D8D000800000000618D0008658D0008DE
:10004000698D00086D8D0008718D0008758D0008A0
:10005000798D00087D8D0008818D0008858D000850
:10006000898D00088D8D0008918D0008958D000800
:10007000998D00089D8D0008A18D0008A58D0008B0
:10008000A98D0008AD8D0008B18D0008B58D000860
:10009000B98D0008BD8D0008C18D0008C58D000810
:1000A000C98D0008CD8D0008D18D0008D58D0008C0
:1000B000D98D0008DD8D00087D810008E58D0008E0
:1000C000E98D0008ED8D0008F18D0008F58D000820
:1000D000F98D0008FD8D0008018E0008058E0008CE
:1000E000098E00080D8E0008118E0008158E00087C
:1000F000198E00081D8E0008218E0008258E00082C
:10010000298E00082D8E000895870008358E00087E
:10011000398E00083D8E0008418E0008458E00088B
:10012000498E00084D8E0008518E0008558E00083B
:10013000DFF8AC1908807047DFF8A819088070470D
:1001400081B0DFF8A0090088ADF80000BDF800001C
:1001500001B07047DFF888291080DFF88829118006
:10016000704710B50400200080B2FFF7E1FF0520C2
:1001700004F0E5F9FFF7E4FF10BDDFF86C09008932
:10018000DFF85C190880704738B504000D00DFF80F
:100190005809808849F24131884206D0DFF8480981
:1001A000808845F21031884218D1DFF83C09408937
:1001B000FFF7BEFFA4B2200AFFF7BEFFE0B2FFF7D1
:1001C000BBFFDFF824098089FFF7B2FFADB2280A30
:1001D000FFF7B2FFE8B2FFF7AFFFCAE0DFF80809A8
:1001E000808846F60401884222D1DFF8FC08807935
:1001F000012804D1DFF8F0080088401E041BDFF856
:10020000E8084089FFF794FFA4B2200AFFF794FFA3
:10021000E0B2FFF791FFDFF8D0088089FFF788FF91
:10022000ADB2280AFFF788FFE8B2FFF785FFA0E02C
:10023000DFF8B408808841F66311884253D1DFF8B3
:10024000A8088079002817D1DFF89C080088401E94
:10025000041BDFF894084089FFF76AFF0020FFF7CE
:100260006BFF0020FFF768FFA4B2200AFFF764FFCE
:10027000E0B2FFF761FF1AE0DFF86C084089FFF792
:1002800057FFA4B2200AFFF757FFE0B2FFF754FF71
:10029000DFF854080088401E001280B2FFF74CFFC0
:1002A000DFF844080088401EC0B2FFF745FFDFF8C2
:1002B00038088089FFF73CFFADB2280AFFF73CFF02
:1002C000E8B2FFF739FFDFF820084088401E00122F
:1002D00080B2FFF731FFDFF810084088401EC0B23F
:1002E000FFF72AFF45E0DFF80008808845F210514B
:1002F000884226D1DFF8F0074089FFF719FFA4B242
:10030000200AFFF719FFDFF8E0074089401C80B2A0
:10031000FFF70EFFE0B2FFF70FFFDFF8CC07808991
:10032000FFF706FFADB2280AFFF706FFDFF8B807B0
:100330008089401C80B2FFF7FBFEE8B2FFF7FCFEAD
:1003400017E0DFF8A4078079012804D1DFF89807C7
:100350000088401E041B210089B2DFF88C07408909
:10036000FFF7F8FE290089B2DFF87C078089FFF7E4
:10037000F1FE31BDF8B5040000250026DFF868075E
:10038000807901280DD1DFF86007808846F60401E6
:10039000884206D0DFF85007808841F66311884212
:1003A0000BD1DFF84407807900282CD1DFF838071B
:1003B000808841F66311884225D1E4B2002C0BD02D
:1003C000022C0FD00BD3042C12D00ED3062C15D038
:1003D00011D3072C15D016E00620040013E00720E7
:1003E000040010E0042004000DE0052004000AE0F1
:1003F0000120040007E00020040004E003200400C2
:1004000001E002200400DFF8E006808849F2413173
:1004100088421CD0DFF8D006808846F60401884266
:1004200015D0DFF8C406808845F2103188420ED01E
:10043000DFF8B406808845F21051884207D0DFF813
:10044000A806808841F66311884240F02681E4B214
:10045000002C0BD0022C0DD009D3042C10D00CD3BF
:10046000062C13D00FD3072C13D014E013E055F053
:10047000800510E055F040050DE055F0C0050AE09C
:1004800055F0200507E055F0600504E055F0A005A3
:1004900001E055F0E005DFF85006808845F2105184
:1004A000884203D14FF45850060001E03620060080
:1004B000DFF83406808845F2103188420FD0DFF82B
:1004C0002806808845F21051884208D0DFF81806C7
:1004D000808841F66311884201D055F00805DFF8A5
:1004E0000806808846F60401884201D155F00205CD
:1004F000290089B2300080B2FFF72CFEDFF8E80552
:10050000808841F6631188422CD0A80615D5DFF803
:10051000D8050088DFF8D0154988884222D2DFF854
:10052000C80500880700DFF8C0054088DFF8B81567
:100530000880DFF8B405478014E0DFF8AC05408898
:10054000DFF8A415098888420CD2DFF89C050088E2
:100550000700DFF894054088DFF88C150880DFF885
:1005600088054780DFF88005808845F21051884271
:100570005ED1DFF874054089FFF7DAFD0020FFF750
:10058000DBFDDFF864054089401C80B2FFF7D0FD39
:100590000020FFF7D1FDDFF850054089801C80B2B4
:1005A000FFF7C6FDDFF840050088401E001280B24C
:1005B000FFF7C2FDDFF830054089C01C80B2FFF7AD
:1005C000B7FDDFF824050088401EC0B2FFF7B4FD78
:1005D000DFF814058089FFF7ABFD0020FFF7ACFDC5
:1005E000DFF804058089401C80B2FFF7A1FD0020E0
:1005F000FFF7A2FDDFF8F0048089801C80B2FFF7CE
:1006000097FDDFF8E4044088401E001280B2FFF737
:1006100093FDDFF8D4048089C01C80B2FFF788FD09
:10062000DFF8C4044088401EC0B2FFF785FD62E0D9
:10063000DFF8B4044089FFF77BFD0020FFF77CFD65
:100640000020FFF779FDDFF8A0040088401E0012AB
:1006500080B2FFF771FDDFF890040088401EC0B241
:10066000FFF76AFDDFF880048089FFF761FD002055
:10067000FFF762FD0020FFF75FFDDFF86C044088A4
:10068000401E001280B2FFF757FDDFF85C0440887F
:10069000401EC0B2FFF750FD2DE0E4B2002C0BD09D
:1006A000022C0FD00BD3042C10D00ED3062C13D059
:1006B0000FD3072C13D014E055F0300511E055F09E
:1006C00010050EE055F020050BE00AE055F0380566
:1006D00007E055F0280504E055F0180501E055F055
:1006E00008050320060055F48055290089B2300022
:1006F00080B2FFF72FFDF1BD70B504000D001600AC
:10070000DFF8E403808849F24131884206D0DFF8FF
:10071000D803808845F21031884218D1DFF8C80329
:100720004089FFF705FDA4B2200AFFF705FDE0B2FE
:10073000FFF702FDDFF8B0038089FFF7F9FCADB2E7
:10074000280AFFF7F9FCE8B2FFF7F6FC9CE0DFF8B7
:100750009803808845F21051884226D1DFF888033B
:100760004089FFF7E5FCA4B2200AFFF7E5FCDFF8BB
:1007700078034089401C80B2FFF7DAFCE0B2FFF753
:10078000DBFCDFF864038089FFF7D2FCADB2280AF6
:10079000FFF7D2FCDFF850038089401C80B2FFF7DE
:1007A000C7FCE8B2FFF7C8FC6EE0DFF83C038088C6
:1007B00041F6631188422ED1DFF82C03807900289E
:1007C00004D1DFF824030088401E041BC64840897A
:1007D000FFF7AEFCA4B2200AFFF7AEFCE0B2FFF7D1
:1007E000ABFCA4B2200AFFF7A7FCE0B2FFF7A4FC21
:1007F000BD488089FFF79CFCADB2280AFFF79CFC3E
:10080000E8B2FFF799FCADB2280AFFF795FCE8B211
:10081000FFF792FC38E0B448808846F6040188422D
:100820001ED1B1488079012803D1AF480088401E0D
:10083000041BAD484089FFF77BFCA4B2200AFFF7F8
:100840007BFCE0B2FFF778FCA7488089FFF770FCDB
:10085000ADB2280AFFF770FCE8B2FFF76DFC13E0B9
:10086000A1488079012803D19F480088401E041BBD
:10087000210089B29C484089FFF76CFC290089B2AD
:1008800099488089FFF766FC974800899449088059
:100890009448068070BD10B50400BE20FFF748FCE8
:1008A0000520FFF749FCE4B2200003F099FE5FF059
:1008B0006632DFF8383203F0A1FE03F071FF80B238
:1008C000FFF73AFC0120FFF737FCFF20FFF734FC6D
:1008D0000020FFF731FC0020FFF72EFC10BD10B503
:1008E0000400E4B2002C77D100207F498871F02009
:1008F0007D4908804FF4A0707B4948807A48808801
:1009000049F2413188420BD07748808846F604018D
:10091000884205D07448808845F2103188421ED143
:100920002C20714908812A206F4948812B206E496B
:1009300088816D48808846F60401884206D06A485E
:10094000808845F21031884240F0C6804FF4A07094
:10095000654908804FF4F07063494880BCE0624804
:10096000808845F21051884214D14FF430505E49CE
:1009700008814FF428505C4948814FF42C505A4963
:1009800088814FF4F070584908804FF448705649F8
:100990004880A1E05448808841F66311884211D113
:1009A0002C20514908812B204F4948812A204E494B
:1009B00088814FF4F0704C4908804FF448704A49E0
:1009C000488089E022204849088120204649488102
:1009D0002120454988817FE00120434988714FF4F7
:1009E000A07041490880F0203F4948803E488088F7
:1009F00049F24131884205D03B48808845F21031A8
:100A0000884209D12C20384908812A20364948815A
:100A10002B20354988814BE03348808846F6040115
:100A2000884209D12C20304908812B202E49488149
:100A30002A202D4988813BE02B48808845F21051BF
:100A4000884214D14FF43050274908814FF4285080
:100A5000254948814FF42C50234988814FF4487030
:100A6000214908804FF4F0701F49488020E01E485B
:100A7000808841F66311884211D12C201A490881DF
:100A80002A20194948812B20174988814FF4487042
:100A9000154908804FF4F0701349488008E022207F
:100AA0001149088121201049488120200E49888160
:100AB0000D48808846F60401884205D00A4880889F
:100AC00045F21031884207D14FF4F0700649088092
:100AD0004FF4A070044948800020FFF74BFC10BD84
:100AE000FE07006C0008006CAC0200206666044043
:100AF00000B59FB001214FF4807003F0AAFF0121DF
:100B00004FF4B47003F0B4FF0120ADF800001020E2
:100B10008DF8030003208DF8020000A9DFF880069D
:100B200004F00AF84CF23370ADF8000018208DF88C
:100B3000030003208DF8020000A9DFF8680603F027
:100B4000FBFF4FF68070ADF8000018208DF8030011
:100B500003208DF8020000A9DFF84C0603F0ECFF3B
:100B600041F20100ADF8000018208DF803000320C9
:100B70008DF8020000A9DFF8340603F0DDFF012044
:100B80000890002009900F200A9000200B90002070
:100B90000C9000200D9000200E900020019000206D
:100BA0000290032003900020049000200590002074
:100BB00006900020079006200F9000201090002043
:100BC000119010201290002013900020159000200A
:100BD000149000201690002017904FF48050189029
:100BE000002019904FF480401A9000201B9008A814
:100BF0001C9001A81D900FA804F04CF801210620BC
:100C000004F0B8F8322003F0B9FC0020FFF7A9FA8D
:100C1000DFF89C158880DFF898058088FF280DDBB9
:100C2000DFF88C0580884FF6FF71884206D0DFF828
:100C300080058088B0F5134F40F0DF80D320FFF7A8
:100C400077FAFFF77DFADFF868158880FFF778FA02
:100C5000DFF85C158880FFF773FADFF85415888099
:100C6000DFF84C0580880002DFF844158880FFF724
:100C700067FADFF83C1589880843DFF83415888067
:100C8000DFF82C05808849F24131884200F0B580B8
:100C9000BF20FFF74DFAFFF753FADFF814158880ED
:100CA000FFF74EFADFF808158880FFF749FADFF8FA
:100CB00000158880FFF744FADFF8F4148880DFF825
:100CC000F00480880002DFF8E8148880FFF738FA23
:100CD000DFF8DC1489880843DFF8D4148880DFF853
:100CE000D004808846F60401884200F08680D42033
:100CF000FFF71EFAFFF724FADFF8B4148880FFF735
:100D00001FFADFF8AC148880FFF71AFADFF8A01496
:100D10008880DFF89C0480880002DFF894148880C3
:100D2000FFF70EFADFF8881489880843DFF880148B
:100D30008880DFF87C04808845F2103188425CD0DE
:100D40004FF45A40FFF7F4F9FFF7FAF9DFF86014AF
:100D500088804FF45B40FFF7EBF9FFF7F1F9DFF81C
:100D600050148880DFF8480480880002DFF84014BF
:100D700088804FF45C40FFF7DBF9FFF7E1F9DFF81B
:100D8000301489880843DFF828148880DFF82004AD
:100D90008088B0F5004F04D145F21050DFF81014F0
:100DA0008880DFF80C04808845F21051884224D0F6
:100DB000A120FFF7BDF9FFF7C3F9DFF8F41388802E
:100DC000FFF7BEF9DFF8E8138880DFF8E4038088D6
:100DD0000002DFF8DC138880FFF7B2F9F449898854
:100DE0000843F3498880F248808845F2617188425F
:100DF00003D141F66310EE498880ED488188ED48C3
:100E000003F0D6FFEA48808849F24131884240F039
:100E10001681CF20FFF78CF90020FFF78DF9C12054
:100E2000FFF78AF93020FFF787F9ED20FFF780F907
:100E30006420FFF781F90320FFF77EF91220FFF706
:100E40007BF98120FFF778F9E820FFF771F9852019
:100E5000FFF772F91020FFF76FF97A20FFF76CF9AE
:100E6000CB20FFF765F93920FFF766F92C20FFF753
:100E700063F90020FFF760F93420FFF75DF90220E5
:100E8000FFF75AF9F720FFF753F92020FFF754F93D
:100E9000EA20FFF74DF90020FFF74EF90020FFF799
:100EA0004BF9C020FFF744F91B20FFF745F9C1209B
:100EB000FFF73EF90120FFF73FF9C520FFF738F9AA
:100EC0003020FFF739F93020FFF736F9C720FFF758
:100ED0002FF9B720FFF730F93620FFF729F948201E
:100EE000FFF72AF93A20FFF723F95520FFF724F9F5
:100EF000B120FFF71DF90020FFF71EF91A20FFF7B8
:100F00001BF9B620FFF714F90A20FFF715F9A22004
:100F1000FFF712F9F220FFF70BF90020FFF70CF9A9
:100F20002620FFF705F90120FFF706F9E020FFF77B
:100F3000FFF80F20FFF700F92A20FFF7FDF828201F
:100F4000FFF7FAF80820FFF7F7F80E20FFF7F4F89C
:100F50000820FFF7F1F85420FFF7EEF8A920FFF77B
:100F6000EBF84320FFF7E8F80A20FFF7E5F80F2039
:100F7000FFF7E2F80020FFF7DFF80020FFF7DCF8CA
:100F80000020FFF7D9F80020FFF7D6F8E120FFF79F
:100F9000CFF80020FFF7D0F81520FFF7CDF8172085
:100FA000FFF7CAF80720FFF7C7F81120FFF7C4F8CA
:100FB0000620FFF7C1F82B20FFF7BEF85620FFF7F9
:100FC000BBF83C20FFF7B8F80520FFF7B5F8102074
:100FD000FFF7B2F80F20FFF7AFF83F20FFF7ACF8AC
:100FE0003F20FFF7A9F80F20FFF7A6F82B20FFF707
:100FF0009FF80020FFF7A0F80020FFF79DF80120E0
:10100000FFF79AF83F20FFF797F82A20FFF790F8AC
:101010000020FFF791F80020FFF78EF80020FFF77F
:101020008BF8EF20FFF788F81120FFF781F8782080
:1010300003F0A4FA2920FFF77BF803F027B95C48F6
:10104000808846F60401884240F0B6801120FFF700
:101050006FF8142003F092FAD020FFF769F8072008
:10106000FFF76AF84220FFF767F81D20FFF764F8E2
:10107000D120FFF75DF80020FFF75EF81A20FFF798
:101080005BF80920FFF758F8D220FFF751F801204C
:10109000FFF752F82220FFF74FF8C020FFF748F87B
:1010A0001020FFF749F83B20FFF746F80020FFF734
:1010B00043F80220FFF740F81120FFF73DF8C52064
:1010C000FFF736F80320FFF737F8C820FFF730F8AE
:1010D0000020FFF731F82520FFF72EF82120FFF739
:1010E0002BF80520FFF728F80020FFF725F80A2045
:1010F000FFF722F86520FFF71FF82520FFF71CF8FF
:101100007720FFF719F85020FFF716F80F20FFF7A8
:1011100013F80020FFF710F8F820FFF709F8012076
:10112000FFF70AF8FE20FFF703F80020FFF704F8A6
:101130000220FFF701F82020FEF7FAFF3620FEF725
:10114000F7FF0820FEF7F8FF3A20FEF7F1FF5520E1
:10115000FEF7F2FF2B20FEF7EBFF0020FEF7ECFF7F
:101160000020FEF7E9FF0120FEF7E6FF3F20FEF733
:10117000E3FF2A20FEF7DCFF0020FEF7DDFF002062
:10118000FEF7DAFF0120FEF7D7FFDF20FEF7D4FFDE
:10119000782003F0F3F92920FEF7CAFF03F076B8B0
:1011A000000C0140001401400018014000200140E3
:1011B000AC020020048D0008DFF8000F808845F2A3
:1011C0001031884240F07C87ED20FEF7B1FF01200E
:1011D000FEF7B2FFFE20FEF7AFFFEE20FEF7A8FFFE
:1011E000DE20FEF7A9FF2120FEF7A6FFF120FEF783
:1011F0009FFF0120FEF7A0FFDF20FEF799FF1020E0
:10120000FEF79AFFC420FEF793FF8F20FEF794FFAE
:10121000C620FEF78DFF0020FEF78EFFE220FEF7CE
:101220008BFFE220FEF788FFE220FEF785FFBF205C
:10123000FEF77EFFAA20FEF77FFFB020FEF778FFC3
:101240000D20FEF779FF0020FEF776FF0D20FEF758
:1012500073FF0020FEF770FF1120FEF76DFF0020E6
:10126000FEF76AFF1920FEF767FF0020FEF764FF14
:101270002120FEF761FF0020FEF75EFF2D20FEF724
:101280005BFF0020FEF758FF3D20FEF755FF0020D2
:10129000FEF752FF5D20FEF74FFF0020FEF74CFFE8
:1012A0005D20FEF749FF0020FEF746FFB120FEF764
:1012B0003FFF8020FEF740FF0020FEF73DFF8B2020
:1012C000FEF73AFF0020FEF737FF9620FEF734FFC7
:1012D0000020FEF731FFB220FEF72AFF0020FEF7C4
:1012E0002BFF0020FEF728FF0220FEF725FF00203D
:1012F000FEF722FF0320FEF71FFF0020FEF71CFF72
:10130000B320FEF715FF0020FEF716FF0020FEF7C2
:1013100013FF0020FEF710FF0020FEF70DFF002056
:10132000FEF70AFF0020FEF707FF0020FEF704FF8C
:101330000020FEF701FF0020FEF7FEFE0020FEF772
:10134000FBFE0020FEF7F8FE0020FEF7F5FE002071
:10135000FEF7F2FE0020FEF7EFFE0020FEF7ECFEA7
:101360000020FEF7E9FE0020FEF7E6FE0020FEF773
:10137000E3FE0020FEF7E0FE0020FEF7DDFE002089
:10138000FEF7DAFE0020FEF7D7FE0020FEF7D4FEBF
:101390000020FEF7D1FEB420FEF7CAFE8B20FEF738
:1013A000CBFE0020FEF7C8FE9620FEF7C5FE00200B
:1013B000FEF7C2FEA120FEF7BFFE0020FEF7BCFE36
:1013C000B520FEF7B5FE0220FEF7B6FE0020FEF7C0
:1013D000B3FE0320FEF7B0FE0020FEF7ADFE0420B2
:1013E000FEF7AAFE0020FEF7A7FEB620FEF7A0FE3D
:1013F0000020FEF7A1FE0020FEF79EFEB720FEF7BC
:1014000097FE0020FEF798FE0020FEF795FE3F2095
:10141000FEF792FE0020FEF78FFE5E20FEF78CFEA8
:101420000020FEF789FE6420FEF786FE0020FEF70E
:1014300083FE8C20FEF780FE0020FEF77DFEAC20B0
:10144000FEF77AFE0020FEF777FEDC20FEF774FE42
:101450000020FEF771FE7020FEF76EFE0020FEF702
:101460006BFE9020FEF768FE0020FEF765FEEB2085
:10147000FEF762FE0020FEF75FFEDC20FEF75CFE5A
:101480000020FEF759FEB820FEF752FE0020FEF7BE
:1014900053FE0020FEF750FE0020FEF74DFE002018
:1014A000FEF74AFE0020FEF747FE0020FEF744FE4E
:1014B0000020FEF741FE0020FEF73EFEBA20FEF7B8
:1014C00037FE2420FEF738FE0020FEF735FE002010
:1014D000FEF732FE0020FEF72FFEC120FEF728FEA9
:1014E0002020FEF729FE0020FEF726FE5420FEF7FE
:1014F00023FE0020FEF720FEFF20FEF71DFE002049
:10150000FEF71AFEC220FEF713FE0A20FEF714FEB5
:101510000020FEF711FE0420FEF70EFE0020FEF76D
:101520000BFEC320FEF704FE3C20FEF705FE002064
:10153000FEF702FE3A20FEF7FFFD0020FEF7FCFD5D
:101540003920FEF7F9FD0020FEF7F6FD3720FEF703
:10155000F3FD0020FEF7F0FD3C20FEF7EDFD00203E
:10156000FEF7EAFD3620FEF7E7FD0020FEF7E4FD7A
:101570003220FEF7E1FD0020FEF7DEFD2F20FEF712
:10158000DBFD0020FEF7D8FD2C20FEF7D5FD002066
:10159000FEF7D2FD2920FEF7CFFD0020FEF7CCFD9F
:1015A0002620FEF7C9FD0020FEF7C6FD2420FEF729
:1015B000C3FD0020FEF7C0FD2420FEF7BDFD002086
:1015C000FEF7BAFD2320FEF7B7FD0020FEF7B4FDBD
:1015D0003C20FEF7B1FD0020FEF7AEFD3620FEF701
:1015E000ABFD0020FEF7A8FD3220FEF7A5FD002090
:1015F000FEF7A2FD2F20FEF79FFD0020FEF79CFDC9
:101600002C20FEF799FD0020FEF796FD2920FEF71D
:1016100093FD0020FEF790FD2620FEF78DFD0020B3
:10162000FEF78AFD2420FEF787FD0020FEF784FDEB
:101630002420FEF781FD0020FEF77EFD2320FEF72B
:101640007BFD0020FEF778FDC420FEF771FD6220CF
:10165000FEF772FD0020FEF76FFD0520FEF76CFD22
:101660000020FEF769FD8420FEF766FD0020FEF7EE
:1016700063FDF020FEF760FD0020FEF75DFD182001
:10168000FEF75AFD0020FEF757FDA420FEF754FD9B
:101690000020FEF751FD1820FEF74EFD0020FEF75A
:1016A0004BFD5020FEF748FD0020FEF745FD0C20C5
:1016B000FEF742FD0020FEF73FFD1720FEF73CFD40
:1016C0000020FEF739FD9520FEF736FD0020FEF7DD
:1016D00033FDF320FEF730FD0020FEF72DFDE62060
:1016E000FEF72AFD0020FEF727FDC520FEF720FDAE
:1016F0003220FEF721FD0020FEF71EFD4420FEF7FC
:101700001BFD0020FEF718FD6520FEF715FD0020EB
:10171000FEF712FD7620FEF70FFD0020FEF70CFD10
:101720008820FEF709FD0020FEF706FDC620FEF723
:10173000FFFC2020FEF700FD0020FEF7FDFC172037
:10174000FEF7FAFC0020FEF7F7FC0120FEF7F4FCA0
:101750000020FEF7F1FCC720FEF7EAFC0020FEF7B0
:10176000EBFC0020FEF7E8FC0020FEF7E5FC002083
:10177000FEF7E2FCC820FEF7DBFC0020FEF7DCFCF5
:101780000020FEF7D9FC0020FEF7D6FC0020FEF773
:10179000D3FCC920FEF7CCFC0020FEF7CDFC0020D6
:1017A000FEF7CAFC0020FEF7C7FC0020FEF7C4FCD1
:1017B0000020FEF7C1FC0020FEF7BEFC0020FEF773
:1017C000BBFC0020FEF7B8FC0020FEF7B5FC0020B3
:1017D000FEF7B2FC0020FEF7AFFC0020FEF7ACFCE9
:1017E0000020FEF7A9FC0020FEF7A6FC0020FEF773
:1017F000A3FC0020FEF7A0FCE020FEF799FC1620D9
:10180000FEF79AFC0020FEF797FC1C20FEF794FCE4
:101810000020FEF791FC2120FEF78EFC0020FEF751
:101820008BFC3620FEF788FC0020FEF785FC462066
:10183000FEF782FC0020FEF77FFC5220FEF77CFCC6
:101840000020FEF779FC6420FEF776FC0020FEF70E
:1018500073FC7A20FEF770FC0020FEF76DFC8B20F5
:10186000FEF76AFC0020FEF767FC9920FEF764FC97
:101870000020FEF761FCA820FEF75EFC0020FEF7CA
:101880005BFCB920FEF758FC0020FEF755FCC42095
:10189000FEF752FC0020FEF74FFCCA20FEF74CFC7E
:1018A0000020FEF749FCD220FEF746FC0020FEF7A0
:1018B00043FCD920FEF740FC0020FEF73DFCE02071
:1018C000FEF73AFC0020FEF737FCF320FEF734FC6D
:1018D0000020FEF731FCE120FEF72AFC1620FEF77F
:1018E0002BFC0020FEF728FC1C20FEF725FC002026
:1018F000FEF722FC2220FEF71FFC0020FEF71CFC56
:101900003620FEF719FC0020FEF716FC4520FEF7F6
:1019100013FC0020FEF710FC5220FEF70DFC002007
:10192000FEF70AFC6420FEF707FC0020FEF704FC2B
:101930007A20FEF701FC0020FEF7FEFB8B20FEF76D
:10194000FBFB0020FEF7F8FB9920FEF7F5FB0020DB
:10195000FEF7F2FBA820FEF7EFFB0020FEF7ECFB02
:10196000B920FEF7E9FB0020FEF7E6FBC420FEF7F6
:10197000E3FB0020FEF7E0FBCA20FEF7DDFB0020C2
:10198000FEF7DAFBD220FEF7D7FB0020FEF7D4FBF0
:10199000D820FEF7D1FB0020FEF7CEFBE020FEF7BB
:1019A000CBFB0020FEF7C8FBF320FEF7C5FB0020B1
:1019B000FEF7C2FBE220FEF7BBFB0520FEF7BCFBF7
:1019C0000020FEF7B9FB0B20FEF7B6FB0020FEF768
:1019D000B3FB1B20FEF7B0FB0020FEF7ADFB34206D
:1019E000FEF7AAFB0020FEF7A7FB4420FEF7A4FBAE
:1019F0000020FEF7A1FB4F20FEF79EFB0020FEF724
:101A00009BFB6120FEF798FB0020FEF795FB7920F9
:101A1000FEF792FB0020FEF78FFB8820FEF78CFB81
:101A20000020FEF789FB9720FEF786FB0020FEF7DB
:101A300083FBA620FEF780FB0020FEF77DFBB7208E
:101A4000FEF77AFB0020FEF777FBC220FEF774FB5F
:101A50000020FEF771FBC720FEF76EFB0020FEF7AB
:101A60006BFBD120FEF768FB0020FEF765FBD6205C
:101A7000FEF762FB0020FEF75FFBDD20FEF75CFB5C
:101A80000020FEF759FBF320FEF756FB0020FEF77F
:101A900053FBE320FEF74CFB0520FEF74DFB002037
:101AA000FEF74AFB0A20FEF747FB0020FEF744FB47
:101AB0001C20FEF741FB0020FEF73EFB3320FEF723
:101AC0003BFB0020FEF738FB4420FEF735FB0020EF
:101AD000FEF732FB5020FEF72FFB0020FEF72CFB19
:101AE0006220FEF729FB0020FEF726FB7820FEF798
:101AF00023FB0020FEF720FB8820FEF71DFB0020C3
:101B0000FEF71AFB9720FEF717FB0020FEF714FBE9
:101B1000A620FEF711FB0020FEF70EFBB720FEF714
:101B20000BFB0020FEF708FBC220FEF705FB0020A0
:101B3000FEF702FBC720FEF7FFFA0020FEF7FCFAD3
:101B4000D120FEF7F9FA0020FEF7F6FAD520FEF7CD
:101B5000F3FA0020FEF7F0FADD20FEF7EDFA0020A0
:101B6000FEF7EAFAF320FEF7E7FA0020FEF7E4FAC0
:101B7000E420FEF7DDFA0120FEF7DEFA0020FEF792
:101B8000DBFA0120FEF7D8FA0020FEF7D5FA022092
:101B9000FEF7D2FA0020FEF7CFFA2A20FEF7CCFAA1
:101BA0000020FEF7C9FA3C20FEF7C6FA0020FEF737
:101BB000C3FA4B20FEF7C0FA0020FEF7BDFA5D2005
:101BC000FEF7BAFA0020FEF7B7FA7420FEF7B4FA6F
:101BD0000020FEF7B1FA8420FEF7AEFA0020FEF7EF
:101BE000ABFA9320FEF7A8FA0020FEF7A5FAA22090
:101BF000FEF7A2FA0020FEF79FFAB320FEF79CFA48
:101C00000020FEF799FABE20FEF796FA0020FEF7B4
:101C100093FAC420FEF790FA0020FEF78DFACD204B
:101C2000FEF78AFA0020FEF787FAD320FEF784FA3F
:101C30000020FEF781FADD20FEF77EFA0020FEF795
:101C40007BFAF320FEF778FA0020FEF775FAE5201C
:101C5000FEF76EFA0020FEF76FFA0020FEF76CFA2E
:101C60000020FEF769FA0020FEF766FA0220FEF770
:101C700063FA0020FEF760FA2920FEF75DFA0020E3
:101C8000FEF75AFA3C20FEF757FA0020FEF754FA06
:101C90004B20FEF751FA0020FEF74EFA5D20FEF7CA
:101CA0004BFA0020FEF748FA7420FEF745FA0020B0
:101CB000FEF742FA8420FEF73FFA0020FEF73CFAD6
:101CC0009320FEF739FA0020FEF736FAA220FEF73D
:101CD00033FA0020FEF730FAB320FEF72DFA002089
:101CE000FEF72AFABE20FEF727FA0020FEF724FAB4
:101CF000C420FEF721FA0020FEF71EFACD20FEF7E1
:101D00001BFA0020FEF718FAD320FEF715FA002080
:101D1000FEF712FADC20FEF70FFA0020FEF70CFAAD
:101D2000F320FEF709FA0020FEF706FAE620FEF798
:101D3000FFF91120FEF700FA0020FEF7FDF934202C
:101D4000FEF7FAF90020FEF7F7F95620FEF7F4F94E
:101D50000020FEF7F1F97620FEF7EEF90020FEF7FD
:101D6000EBF97720FEF7E8F90020FEF7E5F96620A9
:101D7000FEF7E2F90020FEF7DFF98820FEF7DCF934
:101D80000020FEF7D9F99920FEF7D6F90020FEF7DA
:101D9000D3F9BB20FEF7D0F90020FEF7CDF999204A
:101DA000FEF7CAF90020FEF7C7F96620FEF7C4F96E
:101DB0000020FEF7C1F95520FEF7BEF90020FEF71E
:101DC000BBF95520FEF7B8F90020FEF7B5F945201C
:101DD000FEF7B2F90020FEF7AFF94320FEF7ACF9A9
:101DE0000020FEF7A9F94420FEF7A6F90020FEF72F
:101DF000A3F9E720FEF79CF93220FEF79DF90020B9
:101E0000FEF79AF95520FEF797F90020FEF794F9AE
:101E10007620FEF791F90020FEF78EF96620FEF796
:101E20008BF90020FEF788F96720FEF785F900207E
:101E3000FEF782F96720FEF77FF90020FEF77CF9B4
:101E40008720FEF779F90020FEF776F99920FEF752
:101E500073F90020FEF770F9BB20FEF76DF9002042
:101E6000FEF76AF99920FEF767F90020FEF764F99A
:101E70007720FEF761F90020FEF75EF94420FEF7B7
:101E80005BF90020FEF758F95620FEF755F90020BF
:101E9000FEF752F92320FEF74FF90020FEF74CF928
:101EA0003320FEF749F90020FEF746F94520FEF7FA
:101EB00043F90020FEF740F9E820FEF739F9002049
:101EC000FEF73AF90020FEF737F99920FEF734F9CA
:101ED0000020FEF731F98720FEF72EF90020FEF7EB
:101EE0002BF98820FEF728F90020FEF725F9772046
:101EF000FEF722F90020FEF71FF96620FEF71CF915
:101F00000020FEF719F98820FEF716F90020FEF7E9
:101F100013F9AA20FEF710F90020FEF70DF9BB20F7
:101F2000FEF70AF90020FEF707F99920FEF704F9F9
:101F30000020FEF701F96620FEF7FEF80020FEF70C
:101F4000FBF85520FEF7F8F80020FEF7F5F85520CD
:101F5000FEF7F2F80020FEF7EFF84420FEF7ECF869
:101F60000020FEF7E9F84420FEF7E6F80020FEF72F
:101F7000E3F85520FEF7E0F80020FEF7DDF8E92051
:101F8000FEF7D6F8AA20FEF7D7F80020FEF7D4F81F
:101F90000020FEF7D1F80020FEF7CEF80020FEF773
:101FA000C7F8AA20FEF7C8F8CF20FEF7C1F8002036
:101FB000FEF7C2F80020FEF7BFF80020FEF7BCF8DD
:101FC0000020FEF7B9F80020FEF7B6F80020FEF773
:101FD000B3F80020FEF7B0F80020FEF7ADF80020BF
:101FE000FEF7AAF80020FEF7A7F80020FEF7A4F8F5
:101FF0000020FEF7A1F80020FEF79EF80020FEF773
:102000009BF80020FEF798F80020FEF795F80020D6
:10201000FEF792F8F020FEF78BF80020FEF78CF820
:102020005020FEF789F80020FEF786F80020FEF722
:1020300083F80020FEF780F8F320FEF779F80020FF
:10204000FEF77AF8F920FEF773F80620FEF774F829
:102050001020FEF771F82920FEF76EF80020FEF739
:102060006BF83A20FEF764F85520FEF765F811206A
:10207000FEF75EF8642002F081FA2920FEF758F896
:102080003520FEF755F80020FEF756F85120FEF7F0
:102090004FF8FF20FEF750F85320FEF749F82C20A8
:1020A000FEF74AF85520FEF743F88220FEF744F881
:1020B0002C20FEF73DF802F0E9B800BFAC0200208A
:1020C000DFF8080F808845F21051884240F0808781
:1020D00055214FF47040FEF73DF8AA214FF2010060
:1020E000FEF738F852214FF20200FEF733F80821CC
:1020F0004FF20300FEF72EF801214FF20400FEF725
:1021000029F80D214FF43040FEF724F80D214BF251
:102110000100FEF71FF80D214BF20200FEF71AF83E
:1021200034214FF43640FEF715F834214BF20160AC
:10213000FEF710F834214BF20260FEF70BF80D2188
:102140004FF43140FEF706F80D214BF20110FEF777
:1021500001F80D214BF20210FDF7FCFF34214FF482
:102160003740FDF7F7FF34214BF20170FDF7F2FF26
:1021700034214BF20270FDF7EDFF00214FF43240A5
:10218000FDF7E8FF00214BF20120FDF7E3FF0021FE
:102190004BF20220FDF7DEFF24214FF43840FDF71B
:1021A000D9FF24214BF60100FDF7D4FF24214BF683
:1021B0000200FDF7CFFF01214FF43F40FDF7CAFFBA
:1021C0000F214FF43340FDF7C5FF0F214BF20130D3
:1021D000FDF7C0FF0F214BF20230FDF7BBFF3421AA
:1021E0004FF43940FDF7B6FF34214BF60110FDF7EF
:1021F000B1FF34214BF60210FDF7ACFF08214FF47C
:102200003540FDF7A7FF08214BF20150FDF7A2FF73
:1022100008214BF20250FDF79DFF03214FF442408D
:10222000FDF798FF24214FF43A40FDF793FF242156
:102230004BF60120FDF78EFF24214BF60220FDF71F
:1022400089FF00214FF43C40FDF784FF78214BF6D5
:102250000140FDF77FFF00214BF60240FDF77AFFBA
:1022600000214FF43D40FDF775FF78214BF60150FA
:10227000FDF770FF00214BF60250FDF76BFF0021C8
:102280004FF43E40FDF766FF64214BF60160FDF719
:1022900061FF00214FF45140FDF75CFF33214DF207
:1022A0000110FDF757FF00214DF20210FDF752FF1C
:1022B00034214DF20310FDF74DFF00214DF20410C3
:1022C000FDF748FF3A214DF20510FDF743FF0021CD
:1022D0004DF20610FDF73EFF4A214DF20710FDF7C3
:1022E00039FF00214DF20810FDF734FF5C214DF25B
:1022F0000910FDF72FFF00214DF20A10FDF72AFF0C
:1023000081214DF20B10FDF725FF00214DF20C103D
:10231000FDF720FFA6214DF20D10FDF71BFF002158
:102320004DF20E10FDF716FFE5214DF20F10FDF7EF
:1023300011FF01214DF21010FDF70CFF13214DF29A
:102340001110FDF707FF01214DF21210FDF702FFFA
:1023500054214DF21310FDF7FDFE01214DF2141032
:10236000FDF7F8FE82214DF21510FDF7F3FE012175
:102370004DF21610FDF7EEFECA214DF21710FDF7D3
:10238000E9FE02214DF21810FDF7E4FE00214DF2A6
:102390001910FDF7DFFE02214DF21A10FDF7DAFEEB
:1023A00001214DF21B10FDF7D5FE02214DF21C104C
:1023B000FDF7D0FE34214DF21D10FDF7CBFE0221BA
:1023C0004DF21E10FDF7C6FE67214DF21F10FDF7FE
:1023D000C1FE02214DF22010FDF7BCFE84214DF21A
:1023E0002110FDF7B7FE02214DF22210FDF7B2FEDB
:1023F000A4214DF22310FDF7ADFE02214DF2241071
:10240000FDF7A8FEB7214DF22510FDF7A3FE02212E
:102410004DF22610FDF79EFECF214DF22710FDF75D
:1024200099FE02214DF22810FDF794FEDE214DF2B7
:102430002910FDF78FFE02214DF22A10FDF78AFECA
:10244000F2214DF22B10FDF785FE02214DF22C10EA
:10245000FDF780FEFE214DF22D10FDF77BFE0321DE
:102460004DF22E10FDF776FE10214DF22F10FDF7E4
:1024700071FE03214DF23010FDF76CFE33214DF259
:102480003110FDF767FE03214DF23210FDF762FEB9
:102490006D214DF23310FDF75DFE00214FF45240E7
:1024A000FDF758FE33214DF20120FDF753FE0021C8
:1024B0004DF20220FDF74EFE34214DF20320FDF7D0
:1024C00049FE00214DF20420FDF744FE3A214DF271
:1024D0000520FDF73FFE00214DF20620FDF73AFEF4
:1024E0004A214DF20720FDF735FE00214DF208206C
:1024F000FDF730FE5C214DF20920FDF72BFE002197
:102500004DF20A20FDF726FE81214DF20B20FDF74A
:1025100021FE00214DF20C20FDF71CFEA6214DF2FC
:102520000D20FDF717FE00214DF20E20FDF712FEE3
:10253000E5214DF20F20FDF70DFE01214DF2102097
:10254000FDF708FE13214DF21120FDF703FE0121D6
:102550004DF21220FDF7FEFD54214DF21320FDF740
:10256000F9FD01214DF21420FDF7F4FD82214DF219
:102570001520FDF7EFFD01214DF21620FDF7EAFDD4
:10258000CA214DF21720FDF7E5FD02214DF218207A
:10259000FDF7E0FD00214DF21920FDF7DBFD0221E2
:1025A0004DF21A20FDF7D6FD01214DF21B20FDF75B
:1025B000D1FD02214DF21C20FDF7CCFD34214DF25E
:1025C0001D20FDF7C7FD02214DF21E20FDF7C2FDC3
:1025D00067214DF21F20FDF7BDFD02214DF22020A5
:1025E000FDF7B8FD84214DF22120FDF7B3FD022156
:1025F0004DF22220FDF7AEFDA4214DF22320FDF780
:10260000A9FD02214DF22420FDF7A4FDB7214DF2D2
:102610002520FDF79FFD02214DF22620FDF79AFDB2
:10262000CF214DF22720FDF795FD02214DF2282004
:10263000FDF790FDDE214DF22920FDF78BFD0221F3
:102640004DF22A20FDF786FDF2214DF22B20FDF7F9
:1026500081FD02214DF22C20FDF77CFDFE214DF283
:102660002D20FDF777FD03214DF22E20FDF772FDA1
:1026700010214DF22F20FDF76DFD03214DF230208A
:10268000FDF768FD33214DF23120FDF763FD032195
:102690004DF23220FDF75EFD6D214DF23320FDF746
:1026A00059FD00214FF45340FDF754FD33214DF205
:1026B0000130FDF74FFD00214DF20230FDF74AFDDC
:1026C00034214DF20330FDF745FD00214DF2043079
:1026D000FDF740FD3A214DF20530FDF73BFD0021AD
:1026E0004DF20630FDF736FD4A214DF20730FDF779
:1026F00031FD00214DF20830FDF72CFD5C214DF23B
:102700000930FDF727FD00214DF20A30FDF722FDCB
:1027100081214DF20B30FDF71DFD00214DF20C30F3
:10272000FDF718FDA6214DF20D30FDF713FD002138
:102730004DF20E30FDF70EFDE5214DF20F30FDF7A5
:1027400009FD01214DF21030FDF704FD13214DF27A
:102750001130FDF7FFFC01214DF21230FDF7FAFCBC
:1027600054214DF21330FDF7F5FC01214DF21430E8
:10277000FDF7F0FC82214DF21530FDF7EBFC012155
:102780004DF21630FDF7E6FCCA214DF21730FDF789
:10279000E1FC02214DF21830FDF7DCFC00214DF286
:1027A0001930FDF7D7FC02214DF21A30FDF7D2FCAB
:1027B00001214DF21B30FDF7CDFC02214DF21C3002
:1027C000FDF7C8FC34214DF21D30FDF7C3FC02219A
:1027D0004DF21E30FDF7BEFC67214DF21F30FDF7B4
:1027E000B9FC02214DF22030FDF7B4FC84214DF2FA
:1027F0002130FDF7AFFC02214DF22230FDF7AAFC9B
:10280000A4214DF22330FDF7A5FC02214DF2243026
:10281000FDF7A0FCB7214DF22530FDF79BFC02210E
:102820004DF22630FDF796FCCF214DF22730FDF713
:1028300091FC02214DF22830FDF78CFCDE214DF297
:102840002930FDF787FC02214DF22A30FDF782FC8A
:10285000F2214DF22B30FDF77DFC02214DF22C30A0
:10286000FDF778FCFE214DF22D30FDF773FC0321BE
:102870004DF22E30FDF76EFC10214DF22F30FDF79A
:1028800069FC03214DF23030FDF764FC33214DF239
:102890003130FDF75FFC03214DF23230FDF75AFC79
:1028A0006D214DF23330FDF755FC00214FF45440BB
:1028B000FDF750FC33214DF20140FDF74BFC0021A8
:1028C0004DF20240FDF746FC34214DF20340FDF786
:1028D00041FC00214DF20440FDF73CFC3A214DF251
:1028E0000540FDF737FC00214DF20640FDF732FCB4
:1028F0004A214DF20740FDF72DFC00214DF2084022
:10290000FDF728FC5C214DF20940FDF723FC002176
:102910004DF20A40FDF71EFC81214DF20B40FDF700
:1029200019FC00214DF20C40FDF714FCA6214DF2DC
:102930000D40FDF70FFC00214DF20E40FDF70AFCA3
:10294000E5214DF20F40FDF705FC01214DF210404D
:10295000FDF700FC13214DF21140FDF7FBFB0121B7
:102960004DF21240FDF7F6FB54214DF21340FDF7F6
:10297000F1FB01214DF21440FDF7ECFB82214DF2F9
:102980001540FDF7E7FB01214DF21640FDF7E2FB94
:10299000CA214DF21740FDF7DDFB02214DF2184030
:1029A000FDF7D8FB00214DF21940FDF7D3FB0221C2
:1029B0004DF21A40FDF7CEFB01214DF21B40FDF711
:1029C000C9FB02214DF21C40FDF7C4FB34214DF23E
:1029D0001D40FDF7BFFB02214DF21E40FDF7BAFB83
:1029E00067214DF21F40FDF7B5FB02214DF220405B
:1029F000FDF7B0FB84214DF22140FDF7ABFB022136
:102A00004DF22240FDF7A6FBA4214DF22340FDF735
:102A1000A1FB02214DF22440FDF79CFBB7214DF2B2
:102A20002540FDF797FB02214DF22640FDF792FB72
:102A3000CF214DF22740FDF78DFB02214DF22840BA
:102A4000FDF788FBDE214DF22940FDF783FB0221D3
:102A50004DF22A40FDF77EFBF2214DF22B40FDF7AF
:102A600079FB02214DF22C40FDF774FBFE214DF263
:102A70002D40FDF76FFB03214DF22E40FDF76AFB61
:102A800010214DF22F40FDF765FB03214DF2304040
:102A9000FDF760FB33214DF23140FDF75BFB032175
:102AA0004DF23240FDF756FB6D214DF23340FDF7FC
:102AB00051FB00214FF45540FDF74CFB33214DF203
:102AC0000150FDF747FB00214DF20250FDF742FB9C
:102AD00034214DF20350FDF73DFB00214DF204502F
:102AE000FDF738FB3A214DF20550FDF733FB00218D
:102AF0004DF20650FDF72EFB4A214DF20750FDF72F
:102B000029FB00214DF20850FDF724FB5C214DF21A
:102B10000950FDF71FFB00214DF20A50FDF71AFB8B
:102B200081214DF20B50FDF715FB00214DF20C50A9
:102B3000FDF710FBA6214DF20D50FDF70BFB002118
:102B40004DF20E50FDF706FBE5214DF20F50FDF75B
:102B500001FB01214DF21050FDF7FCFA13214DF25B
:102B60001150FDF7F7FA01214DF21250FDF7F2FA7C
:102B700054214DF21350FDF7EDFA01214DF214509E
:102B8000FDF7E8FA82214DF21550FDF7E3FA012135
:102B90004DF21650FDF7DEFACA214DF21750FDF73F
:102BA000D9FA02214DF21850FDF7D4FA00214DF266
:102BB0001950FDF7CFFA02214DF21A50FDF7CAFA6B
:102BC00001214DF21B50FDF7C5FA02214DF21C50B8
:102BD000FDF7C0FA34214DF21D50FDF7BBFA02217A
:102BE0004DF21E50FDF7B6FA67214DF21F50FDF76A
:102BF000B1FA02214DF22050FDF7ACFA84214DF2DA
:102C00002150FDF7A7FA02214DF22250FDF7A2FA5A
:102C1000A4214DF22350FDF79DFA02214DF22450DC
:102C2000FDF798FAB7214DF22550FDF793FA0221EE
:102C30004DF22650FDF78EFACF214DF22750FDF7C9
:102C400089FA02214DF22850FDF784FADE214DF277
:102C50002950FDF77FFA02214DF22A50FDF77AFA4A
:102C6000F2214DF22B50FDF775FA02214DF22C5056
:102C7000FDF770FAFE214DF22D50FDF76BFA03219E
:102C80004DF22E50FDF766FA10214DF22F50FDF750
:102C900061FA03214DF23050FDF75CFA33214DF219
:102CA0003150FDF757FA03214DF23250FDF752FA39
:102CB0006D214DF23350FDF74DFA00214FF456408F
:102CC000FDF748FA33214DF20160FDF743FA002188
:102CD0004DF20260FDF73EFA34214DF20360FDF73C
:102CE00039FA00214DF20460FDF734FA3A214DF231
:102CF0000560FDF72FFA00214DF20660FDF72AFA74
:102D00004A214DF20760FDF725FA00214DF20860D7
:102D1000FDF720FA5C214DF20960FDF71BFA002156
:102D20004DF20A60FDF716FA81214DF20B60FDF7B6
:102D300011FA00214DF20C60FDF70CFAA6214DF2BC
:102D40000D60FDF707FA00214DF20E60FDF702FA63
:102D5000E5214DF20F60FDF7FDF901214DF2106004
:102D6000FDF7F8F913214DF21160FDF7F3F9012198
:102D70004DF21260FDF7EEF954214DF21360FDF7AC
:102D8000E9F901214DF21460FDF7E4F982214DF2D9
:102D90001560FDF7DFF901214DF21660FDF7DAF954
:102DA000CA214DF21760FDF7D5F902214DF21860E6
:102DB000FDF7D0F900214DF21960FDF7CBF90221A2
:102DC0004DF21A60FDF7C6F901214DF21B60FDF7C7
:102DD000C1F902214DF21C60FDF7BCF934214DF21E
:102DE0001D60FDF7B7F902214DF21E60FDF7B2F943
:102DF00067214DF21F60FDF7ADF902214DF2206011
:102E0000FDF7A8F984214DF22160FDF7A3F9022115
:102E10004DF22260FDF79EF9A4214DF22360FDF7EB
:102E200099F902214DF22460FDF794F9B7214DF292
:102E30002560FDF78FF902214DF22660FDF78AF932
:102E4000CF214DF22760FDF785F902214DF2286070
:102E5000FDF780F9DE214DF22960FDF77BF90221B3
:102E60004DF22A60FDF776F9F2214DF22B60FDF765
:102E700071F902214DF22C60FDF76CF9FE214DF243
:102E80002D60FDF767F903214DF22E60FDF762F921
:102E900010214DF22F60FDF75DF903214DF23060F6
:102EA000FDF758F933214DF23160FDF753F9032155
:102EB0004DF23260FDF74EF96D214DF23360FDF7B2
:102EC00049F955214FF47040FDF744F9AA214FF21A
:102ED0000100FDF73FF952214FF20200FDF73AF9E8
:102EE00008214FF20300FDF735F900214FF20400ED
:102EF000FDF730F9CC214FF43140FDF72BF90021DB
:102F00004BF20110FDF726F905214FF43640FDF78D
:102F100021F970214FF43740FDF71CF970214BF275
:102F20000170FDF717F901214FF43840FDF712F950
:102F300003214BF60100FDF70DF903214BF60200CA
:102F4000FDF708F903214BF60300FDF703F9022111
:102F50004FF43C40FDF7FEF800214BF60140FDF731
:102F6000F9F800214BF60240FDF7F4F8D0214FF4B8
:102F70004940FDF7EFF802214CF60110FDF7EAF8A1
:102F800050214CF60210FDF7E5F850214CF60310E5
:102F9000FDF7E0F850214CF60410FDF7DBF80021B6
:102FA0004FF45450FDF7D6F855214FF46850FDF713
:102FB000D1F84FF48850FDF7BBF8782001F0BFFA44
:102FC0004FF42450FDF7B4F801F060B9AC020020D2
:102FD000DFF8400E808849F22531884240F0D780E2
:102FE00047F6F001E520FDF7B5F84FF480710120B8
:102FF000FDF7B0F84FF4E0610220FDF7ABF841F2C5
:1030000030010320FDF7A6F800210420FDF7A2F807
:1030100040F202210820FDF79DF800210920FDF76C
:1030200099F800210A20FDF795F800210C20FDF702
:1030300091F800210D20FDF78DF800210F20FDF7FC
:1030400089F800211020FDF785F807211120FDF7F0
:1030500081F800211220FDF77DF800211320FDF7F3
:1030600079F800210720FDF775F841F290611020F2
:10307000FDF770F840F227211120FDF76BF89D2134
:103080001220FDF767F84FF4C8511320FDF762F8DE
:1030900025212920FDF75EF80D212B20FDF75AF898
:1030A00007213020FDF756F840F203313120FDF7BB
:1030B00051F803213220FDF74DF840F2062135206A
:1030C000FDF748F808213620FDF744F840F20641A4
:1030D0003720FDF73FF84FF441713820FDF73AF8FB
:1030E00007213920FDF736F840F202613C20FDF758
:1030F00031F808213D20FDF72DF800215020FDF783
:1031000029F8EF215120FDF725F800215220FDF785
:1031100021F840F23F115320FDF71CF84FF42741EE
:103120006020FDF717F801216120FDF713F8002159
:103130006A20FDF70FF800218020FDF70BF8002131
:103140008120FDF707F800218220FDF703F8002118
:103150008320FCF7FFFF00218420FCF7FBFF002108
:103160008520FCF7F7FF10219020FCF7F3FF4FF4C8
:10317000C0619220FCF7EEFF40F233110720FCF70C
:10318000E9FF22210020FCF7E5FF01F07FB8DFF81E
:10319000840C808849F22831884240F0F48041F262
:1031A0008F01EC20FCF7D6FF41F23421EF20FCF731
:1031B000D1FF4FF480710120FCF7CCFF4FF4E061A8
:1031C0000220FCF7C7FF41F230010320FCF7C2FFE9
:1031D00000210420FCF7BEFF40F202210820FCF78A
:1031E000B9FF00210920FCF7B5FF00210A20FCF7F8
:1031F000B1FF01210C20FCF7ADFF00210D20FCF7F1
:10320000A9FF00210F20FCF7A5FF00211020FCF7EB
:10321000A1FF07211120FCF79DFF00211220FCF7E0
:1032200099FF00211320FCF795FF01210720FCF7EF
:1032300091FF322001F0A2F941F290411020FCF7F9
:1032400089FF40F227211120FCF784FF322001F092
:1032500095F98A211220FCF77DFF322001F08EF9CA
:103260004FF4D0511320FCF775FF06212920FCF7FD
:1032700071FF0D212B20FCF76DFF322001F07EF94C
:1032800000212020FCF766FF00212120FCF762FFCF
:10329000322001F073F900213020FCF75BFF40F28F
:1032A00004613120FCF756FF40F205313220FCF773
:1032B00051FF00213520FCF74DFF40F60941362033
:1032C000FCF748FF4FF401713720FCF743FF40F251
:1032D00001313820FCF73EFF40F207713920FCF73E
:1032E00039FF00213C20FCF735FF40F60A213D2044
:1032F000FCF730FF322001F041F900215020FCF7AB
:1033000029FFEF215120FCF725FF00215220FCF777
:1033100021FF40F23F115320FCF71CFF4FF42741DF
:103320006020FCF717FF01216120FCF713FF00214B
:103330006A20FCF70FFF00218020FCF70BFF002123
:103340008120FCF707FF00218220FCF703FF00210A
:103350008320FCF7FFFE00218420FCF7FBFE002108
:103360008520FCF7F7FE10219020FCF7F3FE4FF4C8
:10337000C0619220FCF7EEFE40F233110720FCF70B
:10338000E9FE00F083BFDFF88C0A808849F2203123
:10339000884240F0AD8000210020FCF7DBFE4FF4B6
:1033A00080710120FCF7D6FE4FF4E0610220FCF7AB
:1033B000D1FE41F230010320FCF7CCFE00210420B5
:1033C000FCF7C8FE40F202210820FCF7C3FE0021F2
:1033D0000920FCF7BFFE00210A20FCF7BBFE0121FB
:1033E0000C20FCF7B7FE00210D20FCF7B3FE0021F6
:1033F0000F20FCF7AFFE322001F0C0F840F20111BF
:103400000720FCF7A7FE322001F0B8F84FF48651F0
:103410001020FCF79FFE07211120FCF79BFE4FF4C4
:1034200088711220FCF796FE4FF430611320FCF7F0
:1034300091FE00212920FCF78DFE44F210012B2083
:10344000FCF788FE00215020FCF784FEEF2151207C
:10345000FCF780FE00215220FCF77CFE40F23F1179
:103460005320FCF777FE4FF41C516020FCF772FEEE
:1034700001216120FCF76EFE00216A20FCF76AFE44
:1034800000218020FCF766FE00218120FCF762FE0F
:1034900000218220FCF75EFE00218320FCF75AFE0B
:1034A00000218420FCF756FE00218520FCF752FE07
:1034B00010219020FCF74EFE00219220FCF74AFEDE
:1034C00001219320FCF746FE4FF488719520FCF70C
:1034D00041FE00219720FCF73DFE00219820FCF7DB
:1034E00039FE40F273110720FCF734FE00F0CEBE27
:1034F000DFF82009808849F23131884240F0E380CA
:1035000041F21401E720FCF725FE4FF48071012001
:10351000FCF720FE4FF400710220FCF71BFE41F285
:1035200038010320FCF716FE40F202210820FCF7C8
:1035300011FE00210920FCF70DFE00210A20FCF7F6
:1035400009FE00210C20FCF705FE00210D20FCF7F0
:1035500001FE00210F20FCF7FDFD00211020FCF7EB
:10356000F9FD07211120FCF7F5FD00211220FCF7E1
:10357000F1FD00211320FCF7EDFDC82000F0FEFF57
:1035800041F290611020FCF7E5FD40F22721112067
:10359000FCF7E0FD322000F0F1FF0C211220FCF7D7
:1035A000D9FD322000F0EAFF4FF400611320FCF750
:1035B000D1FD11212920FCF7CDFD0B212B20FCF79B
:1035C000C9FD322000F0DAFF00212020FCF7C2FD07
:1035D00040F23F112120FCF7BDFD00213020FCF717
:1035E000B9FD4FF483713120FCF7B4FD0021322086
:1035F000FCF7B0FD4FF401713520FCF7ABFD41F253
:103600000A613620FCF7A6FD40F207713720FCF76F
:10361000A1FD4FF483713820FCF79CFD40F2077147
:103620003920FCF797FD40F202413C20FCF792FD67
:1036300040F60F413D20FCF78DFD00215020FCF7A6
:1036400089FDEF215120FCF785FD00215220FCF778
:1036500081FD40F23F115320FCF77CFD4FF41C51DB
:103660006020FCF777FD01216120FCF773FD00214C
:103670006A20FCF76FFD00218020FCF76BFD002124
:103680008120FCF767FD00218220FCF763FD00210B
:103690008320FCF75FFD00218420FCF75BFD002107
:1036A0008520FCF757FD10219020FCF753FD4FF4C7
:1036B000C0619220FCF74EFD40F233110720FCF769
:1036C00049FD00F0E3BDDFF84C07808845F2084172
:1036D000884240F0A3804FF480710120FCF73AFD4E
:1036E0004FF4E0610220FCF735FD41F23001032088
:1036F000FCF730FD00210420FCF72CFD40F20721EF
:103700000820FCF727FD00210920FCF723FD0021FC
:103710000A20FCF71FFD00210C20FCF71BFD0021F7
:103720000D20FCF717FD00210F20FCF713FD1420DE
:1037300000F024FF41F2B0611020FCF70BFD0121E5
:103740001120FCF707FD01211720FCF703FD4FF4C2
:103750009C711220FCF7FEFC4FF400611320FCF773
:10376000F9FC09212920FCF7F5FC09212A20FCF7A6
:10377000F1FC0021A420FCF7EDFC00215020FCF717
:10378000E9FCEF215120FCF7E5FC00215220FCF779
:10379000E1FC40F23F115320FCF7DCFC4FF41C51DC
:1037A0006020FCF7D7FC01216120FCF7D3FC00214D
:1037B0006A20FCF7CFFC00218020FCF7CBFC002125
:1037C0008120FCF7C7FC00218220FCF7C3FC00210C
:1037D0008320FCF7BFFC00218420FCF7BBFC002108
:1037E0008520FCF7B7FC13219020FCF7B3FC0021E7
:1037F0009220FCF7AFFC03219320FCF7ABFC4FF4C5
:1038000088719520FCF7A6FC40F273110720FCF7A5
:10381000A1FC322000F0B2FE00F038BDDFF8F40564
:10382000808841F20551884240F014810021072030
:10383000FCF790FC322000F0A1FE4FF48E711220B4
:10384000FCF788FC0121A420FCF784FC0F21082050
:10385000FCF780FC08210A20FCF77CFC08210D20E5
:10386000FCF778FC40F207713020FCF773FC07216D
:103870003120FCF76FFC40F203613220FCF76AFC58
:103880004FF4E0613320FCF765FC40F20221342064
:10389000FCF760FC02213520FCF75CFC41F60F715F
:1038A0003620FCF757FC40F207713720FCF752FC3A
:1038B00000213820FCF74EFC00213920FCF74AFC9F
:1038C00040F207713A20FCF745FC00213B20FCF751
:1038D00041FC07213C20FCF73DFC00213D20FCF78A
:1038E00039FC322000F04AFE01210720FCF732FCAF
:1038F00001211720FCF72EFC322000F03FFE4FF490
:10390000BD511020FCF726FC40F217211120FCF7D6
:1039100021FC4FF48F711220FCF71CFC4FF47061F6
:103920001320FCF717FC00212A20FCF713FC0A21C6
:103930002920FCF70FFC4FF49F711220FCF70AFCC2
:1039400000215020FCF706FCEF215120FCF702FC7F
:1039500000215220FCF7FEFB40F23F115320FCF700
:10396000F9FB4FF41C516020FCF7F4FB01216120AE
:10397000FCF7F0FB00216A20FCF7ECFB0021802023
:10398000FCF7E8FB00218120FCF7E4FB002182200A
:10399000FCF7E0FB00218320FCF7DCFB0021842006
:1039A000FCF7D8FB00218520FCF7D4FB13219020E5
:1039B000FCF7D0FB4FF440719220FCF7CBFB0521C4
:1039C0009320FCF7C7FB00219520FCF7C3FB0021E7
:1039D0009720FCF7BFFB00219820FCF7BBFB4FF4BE
:1039E00080710120FCF7B6FB4FF4E0610220FCF788
:1039F000B1FB41F238010320FCF7ACFB00210420AD
:103A0000FCF7A8FB00210C20FCF7A4FB00210F20F1
:103A1000FCF7A0FB00212020FCF79CFB00212120CB
:103A2000FCF798FB21210720FCF794FB142000F001
:103A3000A5FD61210720FCF78DFB142000F09EFD01
:103A400040F273110720FCF785FB142000F096FD6F
:103A500000F01CBCEF4880884BF20551884240F0D2
:103A6000028100210020FCF775FB00210020FCF7FB
:103A700071FB00210020FCF76DFB00210020FCF70A
:103A800069FB0121A420FCF765FB142000F076FD02
:103A90004FF41C516020FCF75DFB40F2022108202E
:103AA000FCF758FB4FF405713020FCF753FB43F251
:103AB00015713120FCF74EFB40F204613220FCF717
:103AC00049FB40F616613320FCF744FB42F211211A
:103AD0003420FCF73FFB4FF4A8513520FCF73AFBAC
:103AE00048F207513620FCF735FB41F207413720F9
:103AF000FCF730FB41F203413820FCF72BFB20217F
:103B00003920FCF727FB1A219020FCF723FB00212A
:103B10001020FCF71FFB07211120FCF71BFB0021E5
:103B20001220FCF717FB00211320FCF713FB1420D5
:103B300000F024FD4FF4E6611020FCF70BFB40F28F
:103B400037111120FCF706FB142000F017FD4FF48D
:103B5000DC711220FCF7FEFA142000F00FFD4FF488
:103B600070611320FCF7F6FA80212A20FCF7F2FAA4
:103B700048212920FCF7EEFA142000F0FFFC4FF456
:103B800080710120FCF7E6FA4FF4E0610220FCF7B7
:103B9000E1FA41F238010320FCF7DCFA40F202219D
:103BA0000820FCF7D7FA00210A20FCF7D3FA0021FD
:103BB0000C20FCF7CFFA00210D20FCF7CBFA3021C6
:103BC0000E20FCF7C7FA00215020FCF7C3FAEF21C2
:103BD0005120FCF7BFFA00215220FCF7BBFA40F25B
:103BE0003F115320FCF7B6FA4FF41C516020FCF74C
:103BF000B1FA01216120FCF7ADFA00216A20FCF73F
:103C0000A9FA11219020FCF7A5FA4FF4C061922087
:103C1000FCF7A0FA40F202419320FCF79BFA022144
:103C20009420FCF797FA142000F0A8FC012107204B
:103C3000FCF790FA142000F0A1FC61210720FCF7AA
:103C400089FA40F273110720FCF784FA0021202042
:103C5000FCF780FA00212120FCF77CFA22210020C9
:103C6000FCF778FA12E36B4880884CF205518842E1
:103C700040F0D28000210020FCF76CFA00210020E7
:103C8000FCF768FA142000F079FC00210020FCF712
:103C900061FA00210020FCF75DFA00210020FCF70A
:103CA00059FA00210020FCF755FA0121A420FCF765
:103CB00051FA142000F062FC4FF41C516020FCF714
:103CC00049FA40F606010820FCF744FA40F2037175
:103CD0003020FCF73FFA01213120FCF73BFA0421A8
:103CE0003220FCF737FA4FF481713320FCF732FAB7
:103CF0004FF440713420FCF72DFA40F203113520C7
:103D0000FCF728FA1F213620FCF724FA40F2037151
:103D10003720FCF71FFA01213820FCF71BFA042199
:103D20003920FCF717FA15219020FCF713FA4FF40D
:103D300082611020FCF70EFA40F247211120FCF7B7
:103D400009FA4FF4DE711220FCF704FA4FF46061B7
:103D50001320FCF7FFF9782000F010FC4FF480717D
:103D60000120FCF7F7F94FF400710220FCF7F2F99B
:103D700041F230010320FCF7EDF908210A20FCF79D
:103D8000E9F900210C20FCF7E5F920210E20FCF7D1
:103D9000E1F900210F20FCF7DDF900212020FCF7DC
:103DA000D9F900212120FCF7D5F93D212A20FCF783
:103DB000D1F9142000F0E2FB2D212920FCF7CAF9EB
:103DC00000215020FCF7C6F94DF2EF015120FCF71D
:103DD000C1F900215220FCF7BDF940F23F115320F8
:103DE000FCF7B8F900216120FCF7B4F900216A2042
:103DF000FCF7B0F94FF440719220FCF7ABF90521C4
:103E00009320FCF7A7F94FF480710720FCF7A2F983
:103E10003CE200BFAC020020DFF84C06808844F290
:103E20003151884240F0BA8001210020FCF792F91C
:103E30000A2000F0A3FB41F228611020FCF78AF968
:103E40000E211220FCF786F940F639211320FCF7E9
:103E500081F90A2000F092FB40211120FCF77AF949
:103E600050211520FCF776F90A2000F087FB1E216F
:103E70001220FCF76FF90A2000F080FB4FF4B151DB
:103E80001020FCF767F942F639211320FCF762F99C
:103E90000A2000F073FB4FF480710120FCF75AF9FF
:103EA0004FF440710220FCF755F941F2380103202C
:103EB000FCF750F940F202210820FCF74BF90821E9
:103EC0000A20FCF747F900213020FCF743F940F2C3
:103ED00002413120FCF73EF94FF483713220FCF7A8
:103EE00039F940F203513320FCF734F94FF4827171
:103EF0003420FCF72FF940F201313520FCF72AF984
:103F000040F207713620FCF725F940F205313720E1
:103F1000FCF720F94FF402713820FCF71BF940F64A
:103F20000B713920FCF716F902214120FCF712F938
:103F30004FF41C516020FCF70DF901216120FCF7C2
:103F400009F94FF404719020FCF704F94FF48571DE
:103F50009220FCF7FFF804219320FCF7FBF84FF4C4
:103F60008071A020FCF7F6F801210720FCF7F2F899
:103F700021210720FCF7EEF823210720FCF7EAF8BF
:103F800033210720FCF7E6F840F233110720FCF755
:103F9000E1F80021A020FCF7DDF877E1DFF8C804A4
:103FA000808844F23551884240F0B080302115209D
:103FB000FCF7D0F810219A20FCF7CCF82021112032
:103FC000FCF7C8F843F228411020FCF7C3F802219F
:103FD0001220FCF7BFF841F238011320FCF7BAF8C1
:103FE000282000F0CBFA12211220FCF7B3F8282089
:103FF00000F0C4FA43F220411020FCF7ABF843F282
:1040000038011320FCF7A6F8462000F0B7FA00218B
:104010003020FCF79FF840F202413120FCF79AF87B
:1040200040F207313220FCF795F84FF4417133200C
:10403000FCF790F804213420FCF78CF840F20141A1
:104040003520FCF787F840F207713620FCF782F83C
:1040500040F205313720FCF77DF84FF4C26138207B
:10406000FCF778F84FF4C2613920FCF773F84FF48D
:1040700080710120FCF76EF84FF440710220FCF7CC
:1040800069F841F230010320FCF764F840F60801BA
:104090000820FCF75FF808210A20FCF75BF84FF4D2
:1040A0001C516020FCF756F801216120FCF752F802
:1040B0004FF49F719020FCF74DF84FF480719220DF
:1040C000FCF748F84FF480719320FCF743F84FF465
:1040D0004051A020FCF73EF81021A320FCF73AF84D
:1040E00001210720FCF736F821210720FCF732F8E0
:1040F00023210720FCF72EF833210720FCF72AF8AC
:1041000040F233110720FCF725F8BFE0DFF8580331
:10411000808841F66311884240F0B880E220FCF7C5
:1041200007F81D20FCF708F80220FCF705F804202A
:10413000FCF702F8642000F002FAE020FBF7F8FF39
:104140000120FBF7F9FF0A2000F018FAE020FBF746
:10415000EFFF0320FBF7F0FF0C2000F00FFA012027
:10416000FBF7E6FF0A2000F009FAE620FBF7E0FF84
:104170002F20FBF7E1FFFF20FBF7DEFFFF20FBF71F
:10418000DBFFB020FBF7D4FF2020FBF7D5FF00209A
:10419000FBF7D2FF0320FBF7CFFF40F21F30FBF706
:1041A000CBFF0120FBF7C8FF40F2DF10FBF7C4FF95
:1041B0000020FBF7C1FFB420FBF7BAFF0420FBF798
:1041C000BBFF40F21F40FBF7B7FF0020FBF7B4FF37
:1041D0002E20FBF7B1FF0020FBF7AEFF0020FBF71E
:1041E000ABFF0020FBF7A8FF0020FBF7A5FFB620E0
:1041F000FBF79EFF0220FBF79FFF4FF40370FBF7D6
:104200009BFF0020FBF798FF1720FBF795FF152079
:10421000FBF792FF0020FBF78FFF0020FBF78CFFDE
:10422000F020FBF785FF0320FBF786FF2920FBF733
:104230007FFFD020FBF77CFF0020FBF77DFFBE2037
:10424000FBF776FF0520FBF777FFFE20FBF774FFF7
:104250000120FBF771FF0020FBF76EFF0020FBF74A
:104260006BFF0020FBF768FFB820FBF761FF03201E
:10427000FBF762FF0120FBF75FFFBA20FBF758FF57
:104280000120FBF759FF6420FCF705FB0020FCF739
:1042900026FB0121DFF8D40100F0F6FC4FF6FF7099
:1042A00000F002F81FB000BD70B504000025DFF873
:1042B000B8010688DFF8B00140884643DFF8A8015E
:1042C000808846F60401884221D1DFF89C0180797C
:1042D00001281CD10020DFF8901188712A20DFF816
:1042E000881148812B20DFF880118881002100206F
:1042F000FBF74AFF0120DFF8701188712B20DFF8EF
:10430000681148812A20DFF86011888103E00021CC
:104310000020FBF739FFFBF730FF00200500B54216
:1043200004D2DFF84C0104806D1CF8E770BD2DE964
:10433000F84F05000E00170098460A9CADF8006083
:104340005FFA88F8082098FBF0F101FB1081002942
:1043500001D0012000E000205FFA88F8082198FBD6
:10436000F1F140185FFA88F8022198FBF1F1484317
:104370008DF80200203F002083469DF802005FFA7E
:104380008BFB83456DD25FFA88F8B8F10C0F0AD128
:104390003848FFB20C2101FB07005FFA8BFB1BF8CA
:1043A000000081461FE05FFA88F8B8F1100F09D1CC
:1043B0003148FFB210EB07105FFA8BFB1BF80000CF
:1043C000814610E05FFA88F8B8F1180F0AD12B483F
:1043D000FFB2242101FB07005FFA8BFB1BF80000F2
:1043E000814600E03DE0002082465FFA8AFABAF199
:1043F000080F33DA5FEA096008D5214802883100E6
:1044000089B2280080B2FCF777F90AE0E4B2002C08
:1044100007D11C480288310089B2280080B2FCF71D
:104420006BF95FEA4909761C0F484088B6B28642AC
:1044300017D2B6B2BDF80000301A5FFA88F84045CE
:1044400009D1BDF8000006006D1C07480088ADB218
:10445000854206D202E01AF1010AC6E71BF1010B00
:104460008BE7BDE8F18F0000AC020020000C01409A
:104470000008006CD0770008E07100088464000830
:10448000E0020020880100202DE9F04782B00500FD
:104490000E0091469A460A9C0B9FA84615EB090907
:1044A00016EB0A0A38787F2823DA3878202820DBB0
:1044B000ADB21FFA89F94D4504D35FFA88F8454635
:1044C000E4B2A619B6B21FFA8AFA564511D20020F4
:1044D00000902300DBB23A78310089B2280080B224
:1044E000FFF725FFE4B2022094FBF0F045197F1C92
:1044F000D8E7BDE8F38750F8041B61B150F8042BEE
:10450000D30744BFA9F101039A180023091F42F8F9
:10451000043BFAD1EFE770470021814208DA00221C
:1045200042F2FF139A4201DA521CF9E7491CF4E700
:10453000704780B57FF0040000F04CFC01BD0922FB
:1045400002FB00F21E4B1A6000221E4B1A601E4A2C
:10455000126852F001021C4B1A601B4A12681100CB
:1045600011F00112012AF8D0174A126852085200BD
:10457000154B1A600022134B1A60704780B242F24A
:10458000283202FB00F20E4B1A6000220D4B1A601B
:104590000D4A126852F001020B4B1A600A4A126867
:1045A000110011F00112012AF8D0074A12685208CE
:1045B0005200054B1A600022024B1A60704700003F
:1045C00014E000E018E000E010E000E0010040F13D
:1045D0000980F446404200F005F851F00041604780
:1045E000010000BF09D0B0FA80F18840C91CC1F5B4
:1045F0008461090501EBD02140057047B0B581EA1F
:10460000030C0CF0004C40F2FF7515EA11541DBF6D
:1046100015EA1357AC42AF4239E0E41923EA455397
:1046200043F48013C90241F0004141EA505EC702E1
:104630001100A7FB020200284FF00000EEFB012052
:104640004FF00001E3FB072118BF42F001024018C0
:1046500000214941E3FB0E01A4F580640F0302D25F
:1046600052004041494154F101046CDD470872F1A8
:10467000004250F1000051EB0451A1F580115CBFE4
:1046800041EA0C01B0BD4CEA05510020B0BD05EA7D
:104690001357AC4214BFAF4241E050EA410E1CBF79
:1046A00052EA430E02E061460020B0BD24423C4481
:1046B0001BD15FEA070EF6D0090302BF01460020B6
:1046C000AEF1140EB1FA81F7AEEB070401FA07FE62
:1046D0000C37C7F1200100FA07F7C8404EEA000E78
:1046E00023EA455343F48013A2E733F00043B3FABF
:1046F00083F704BFB2FA82FE77440B3FE41BB7F1A5
:10470000200E2FBF02FA0EF3BB40C7F1200E22FA93
:104710000EFE38BF43EA0E03BA40641C82E750EA3B
:10472000410E14BF52EA430E6FF000014FF4001720
:1047300017EB430F8ABF194617EB410FB5E74CEA59
:1047400005510020B0BDD4F10104B4F120070FDA07
:10475000C4F12007520828BF42F0010210FA07F501
:1047600001FA07F7E1BF2A43E0403843E1400FE098
:10477000352C98DCC7F1200452EA400220FA07F2F7
:1047800018BF42F0010231FA07F0A1400A430021AC
:1047900072F1004250F1000051EB0C01B0BD00007D
:1047A000F446400D40EAC120490006D200F014F85A
:1047B000004248BF6FF00040604700F00DF84FF036
:1047C000004188428CBF084640426047400D40EAA5
:1047D000C120490080F00D8040F00040490DA1F556
:1047E0008061491C05D4D1F11F0154BFC840C017D6
:1047F00070474FF000007047DFF80003006850F08A
:104800000100DFF8F8120860DFF8F4020068DFF852
:10481000F4120840DFF8E8120860DFF8E0020068F0
:10482000DFF8E4120840DFF8D4120860DFF8CC02A9
:10483000006830F48020DFF8C4120860DFF8C0029E
:10484000006830F4FE00DFF8B81208605FF41F0063
:10485000DFF8B81208607047DFF8A012096831F479
:104860008031DFF898221160DFF89012096831F486
:104870008021DFF8882211600100B1F5803F03D06C
:10488000B1F5802F09D011E0DFF87012096851F4FA
:104890008031DFF86822116008E0DFF860120968F3
:1048A00051F4A021DFF854221160FFE7704738B5BA
:1048B0000020009000240025312000F0F7F80500CA
:1048C0000098401C00900098B0F5A06F02D0EDB2A7
:1048D000002DF1D0312000F0E9F8002802D00120AD
:1048E000040001E0002004002000C0B232BD00221C
:1048F000DFF80C321B681A0032F47C1251EA000314
:104900001A43DFF8FC311A607047C0B2DFF80012BA
:104910000860704700217A4A1268110089088900EE
:104920000143774A116070477548006810F00C0029
:1049300070470021724A1268110031F0F001014302
:104940006F4A1160704700216D4A1268110031F4FE
:10495000E06101436A4A116070470021684A1268A9
:10496000110031F4605151EAC001654A116070478D
:1049700070B40021002200230024614D2D6815F041
:104980000C0529000D00002D04D0042D05D0082DA4
:1049900006D026E0604D056025E05F4D056022E011
:1049A000574D2D6815F470152A00554D2D6815F4D6
:1049B00080352B00920C921C002B04D1574D05FB27
:1049C00002F505600CE04E4D2D68AD0304D5534D46
:1049D00005FB02F5056003E04F4D05FB02F50560A0
:1049E00001E04D4D0560464D2D6815F0F00529009C
:1049F00009094B4D4D5D2C0005682E00E6404660D0
:104A00003F4D2D6815F4E0652900090A444D4D5DC0
:104A10002C0045682E00E6408660394D2D6815F45F
:104A200060552900C90A3E4D4D5D2C0045682E0099
:104A3000E640C660324D2D6815F440452900890BCB
:104A4000384D4D5D2C00C568B5FBF4F5056170BCB3
:104A50007047C9B2002905D0334A12680243324B6D
:104A60001A6004E0304A126882432F4B1A60704784
:104A7000C9B2002905D02D4A126802432B4B1A6097
:104A800004E02A4A12688243284B1A607047C9B270
:104A9000002905D0264A12680243254B1A6004E01B
:104AA000234A12688243224B1A60704710B40100F7
:104AB000002200230020C9B24C09E4B22200012ADE
:104AC00003D10E4C2468230008E0022A03D1114CC4
:104AD0002468230002E0174C24682300C9B211F0B7
:104AE0001F0422001C00D440E40702D5012420004A
:104AF00001E000242000C0B210BC7047001002404A
:104B0000041002400000FFF8FFFFF6FE081002400C
:104B1000600042422010024000127A0000093D006D
:104B2000680100208001002014100240181002408B
:104B30001C10024024100240F0B500270022002380
:104B400000240025002691F803C01CF00F0C6746D6
:104B500091F803C05FEACC6C03D591F802C05CEA1F
:104B6000070791F800C05FEA0C6C3AD0D0F800C09B
:104B700065465FF0000C6346082B31D25FF0010CF4
:104B80001CFA03FC6446B1F800C014EA0C0C62463F
:104B9000A24223D15FEA830C64465FF00F0C1CFA3B
:104BA00004FC6646B54317FA04FC5CEA050591F877
:104BB00003C0BCF1280F06D15FF0010C1CFA03FC06
:104BC000C0F814C00AE091F803C0BCF1480F05D149
:104BD0005FF0010C1CFA03FCC0F810C05B1CCBE7B3
:104BE0000560B1F800C0BCF1FF0F3FDDD0F804C094
:104BF00065465FF0000C6346082B36D25FF0010C6F
:104C000013F1080E1CFA0EFC6446B1F800C014EA59
:104C10000C0C6246A24226D15FEA830C64465FF028
:104C20000F0C1CFA04FC6646B54317FA04FC5CEA58
:104C3000050591F803C0BCF1280F07D15FF0010C06
:104C400013F1080E1CFA0EFCC0F814C091F803C052
:104C5000BCF1480F07D15FF0010C13F1080E1CFAEC
:104C60000EFCC0F810C05B1CC6E74560F0BD02003A
:104C70000020936889B20B4202D00123180001E0A2
:104C800000231800C0B2704789B20161704789B231
:104C900041617047416882681143C26811430269EB
:104CA00011434269114382691143C2691143026A87
:104CB0001143426A1143826A1143C26A1143026B73
:104CC000114302689200B2F1C04211608168082964
:104CD0000BD101688900B1F1C041096851F0400170
:104CE00002689200B2F1C0421160416B0968426BE8
:104CF000526851EA0211426B926851EA0221426BFA
:104D0000D26851EA0241426B126951EA0251426B88
:104D1000526951EA0261426B926911430268920042
:104D2000B2F1C0425160C16AB1F5804F1AD1816BB6
:104D30000968826B526851EA0211826B926851EAEB
:104D40000221826B126951EA0251826B526951EA67
:104D50000261826B92691143DFF84C20036842F8CC
:104D6000231006E07FF07041DFF83C20036842F832
:104D700023107047C9B200290AD08200B2F1C042A4
:104D8000126852F001028300B3F1C0431A6009E0D7
:104D90008200B2F1C0421268044B1A408300B3F1A2
:104DA000C0431A6070470000040100A0FEFF0F001E
:104DB0000EB400B582B003A90091024600AB0121F8
:104DC000034878440A3000F017F806BC5DF810FB81
:104DD000133F0000042806D10649096851F0040178
:104DE000044A116005E00349096831F00401014AF1
:104DF0001160704710E000E02DE9F04FA1B080464F
:104E0000002017461D4602910B900DF1440A6FF0E9
:104E100000490AE017F8011B0298C04700280290D9
:104E200000F0AB820B98401C0B90387808B90B98B7
:104E3000A5E22528EED10020059006900790089065
:104E400009900A9001E040F0010017F8011F2029A5
:104E5000F9D023290DD02B2904D02D2906D03029B3
:104E60000AD00CE040F0020080B2EEE740F004000F
:104E7000FAE740F00800F7E740F01000F4E72A29CD
:104E80000ED12968296051F8042B2960002A0D925F
:104E900004D5514240F004000D9180B27F1C11E016
:104EA00000210D9109E00D99494505D001EB8103E1
:104EB00002EB430130390D917F1C3A78A2F13001A9
:104EC0000A29F0D339782E2903D04FF0FF310C9105
:104ED0001DE017F8011F2A2907D1296829607F1CC6
:104EE00051F8042B29600C9211E000210C9109E08B
:104EF0000C99494505D001EB810302EB43013039A0
:104F00000C917F1C3A78A2F130010A29F0D3ADF858
:104F100038000FF66440397800F03CFE08B117F80D
:104F2000010B8DF83A009DF83A00682802BF3978E5
:104F30006829622005D06C2804BF38786C2803D11A
:104F400071208DF83A007F1C11A8049017F8014BCE
:104F5000B4F1250029D01C3800F0C280001F0228BF
:104F600040F2BE80133800F0E380093800F0B880CA
:104F7000801E00F04A81401E00F02381401E02285E
:104F800040F2AE80001F00F01C81401F79D0401E0F
:104F900000F0CE80401E24D0C01E0BD0801E00F03A
:104FA000C780C01E00F0C48039E125208DF8440080
:104FB00001203DE12868286050F8046B28600396C2
:104FC0000C9C002C04D5304600F0F0FD044606E0B1
:104FD00022460021304600F005FE00B1841B0694F5
:104FE00027E1296829603C2451F8040B296000213D
:104FF000CDE9000111A80390DDE90001049E11B97B
:1050000008B90C9AB2B10206120FA0EB02123032AC
:10501000D2B2631E3A2AA8BF2732000940EA0170C3
:1050200009099A5508BF00281C4603D0039AA31902
:105030009A42E8D3A0190390C4F13C010C98069160
:10504000814209DA401A08904FF6EF71BDF8380036
:105050000840ADF83800ECE0002840F1EA809DF807
:10506000380000F01400102840F0E3800D98059AF5
:10507000801A089A801A441A012CC0F2DA80089427
:10508000D7E09DF83A0062281AD0682806D06A282E
:105090000CD06C281CD0712808D019E02868286032
:1050A00050F8041B28600B980880C2E0286828602C
:1050B00050F8042B28600B98C117C2E90001B8E032
:1050C0002868286050F8041B28600B980870B0E02E
:1050D0002868286050F8041B28600B980860A8E036
:1050E0002868C01D20F007022A60D2E900010832BA
:1050F0002A60CDE90001002902D505982D210AE09A
:10510000BDF83800810702D505982B2103E0C007C0
:1051100005D50598202100F80A10401C059011A81B
:10512000059908180390214600A800F0E5F980E0F1
:105130009DF83A006C280DD0712818BF6A2809D153
:105140002868C01D20F007022A60D2E90001083259
:105150002A6005E02968296051F8040B29600021C4
:10516000CDE900019DF83A00682803D1DDE900018E
:1051700080B20BE0622803D1DDE90001C0B205E096
:10518000742818BF7A2804D1DDE900010021CDE997
:1051900000019DF8380000072ED5DDE90001002947
:1051A00008BF002828D044F02000782824D1059892
:1051B000302100F80A10401C411C059100F80A40FB
:1051C0001AE09DF83A00294600F0DCF8CDE900012C
:1051D000002902DA05982D210AE0BDF83800810780
:1051E00002D505982B2103E0C00705D5059820219D
:1051F00000F80A10401C059011A8059908180390A2
:10520000214600A800F0F5F813E001200590286879
:10521000286050F8041B28608DF8441009E0252010
:105220008DF84400012005901CB18AF8014002204D
:1052300005900D980599401A0899401A0699401A48
:105240000999401A0799401A0A99441A9DF838009A
:10525000400710D420208DF84000002609E00123EB
:1052600010AA00A9404600F06FFC002840F085809D
:10527000761CA642F3DB059E0DF1440B0AE01BF8F9
:10528000011B0298C0470028029076D00B98401C62
:105290000B90761E002EF2D130208DF840004FF09A
:1052A000000B089E09E0012310AA00A9404600F067
:1052B0004BFC002861D10BF1010BB345F3DB069EDB
:1052C000DDF80CB00AE01BF8011B0298C04700286B
:1052D000029052D00B98401C0B90761E002EF2D1FB
:1052E00030208DF840004FF0000B099E09E00123AB
:1052F00010AA00A9404600F027FC00283DD10BF180
:10530000010BB345F3DB03980699079E01EB000BF5
:1053100009E01BF8011B0298C047029068B30B9884
:10532000401C0B90761E002EF3D130208DF84000EB
:105330004FF0000B0A9E08E0012310AA00A9404686
:1053400000F002FCC8B90BF1010BB345F4DB9DF88A
:10535000380040077FF569AD20208DF84000002619
:1053600000E0761CA642BFF660AD012310AA00A99A
:10537000404600F0E9FB0028F3D04FF0FF3021B0A9
:10538000BDE8F08F622826D068281DD06A2808D092
:105390006C2827D0712804D0742823D07A280CD008
:1053A00020E00868C01D20F007000860D0E9002355
:1053B000083008601946104670470A680A6052F8BB
:1053C000040B0A60002170470A680A6052F8040B57
:1053D0000A6000B20BE00A680A6052F8040B0A6027
:1053E00040B204E00A680A6052F8040B0A60C11770
:1053F00070472DE9FA4E05460A462F696F2A08BF05
:10540000082405D041F02000782814BF0A24102475
:105410003C26D5E90001642A18BF692A81468A46DC
:1054200005D1002903DAD9F100096AEB4A0ABAF179
:10543000000F08BFB9F1000F0CD1286B50B9082C30
:1054400036D195F83800000732D530203B2687F852
:105450003B002DE0E31748465146224600F0EEFBA4
:10546000A4FB0023A9EB02023032D2B2A6F1010B59
:105470003A2A5E4603DB9DF80030513B9A1881467C
:105480005FEA010A0BF8072008BFB9F1000F03D04B
:10549000E868F1198842DDD3082C09D195F8380065
:1054A000000705D5F05D302802D0761E3020F0557B
:1054B000C6F13C00A861F119E960296B884208DA5D
:1054C000081A28624FF6EF71288F08402887BDE838
:1054D000F38E00290ED595F8381001F0140110292B
:1054E00008D1696B6A69891A2A6A891A0E1A012E0B
:1054F000A8BF2E62BDE8F38E2DE9F24F04468EB0B0
:10550000D4E90001CDE9020104AF9DF8380040F074
:10551000200BBBF1610F0AD0206B002848BF06208A
:1055200004D408BFBBF1670F01D10120206361687B
:10553000C1F30A5040F2FF7290421CD1080304BF2D
:105540002068002809D10320A0619DF83800613847
:105550001A2836D30FF2346108E00320A0619DF8C9
:10556000380061381A2829D30FF21861E068032245
:1055700000F0DCFBBEE1012816DA204600F011FC49
:10558000012811DB00250020BBF1610F20D1E1686B
:10559000302201F8012B4A1CE2609DF83820612A74
:1055A0000CBF782258220FE0626840F2FE3161F3AE
:1055B0001E52451A62604FF0FF30E5E70FF2C0510E
:1055C000D4E70FF2C451D1E70A706169891C6161A7
:1055D00010B90026002584E1BBF1610F40F09780EF
:1055E000206BD4E900AB00284CBF2126461CDDE926
:1055F00002010022002300F0F5FB36B23ABF8BF027
:105600000040CDE902A0CDE902AB06F101082D1F53
:105610008DF810200DF1110700E0C71DB8F1010F42
:1056200033DBDDE902010022002300F0F3FB2CD282
:105630001C2102A800F006FCDDE90201FFF7B0F82A
:10564000A8F10708B8F1010F814609DBFEF7BEFF9C
:1056500002460B46DDE9020100F07CFCCDE90201C7
:10566000F81D072105E009F00F0200F8012D4FEAAF
:105670002919B9F1010F01DB491EF4D5491E5CBFA0
:10568000002200F8012DF9D5C7E70DF11100391AF4
:10569000B142B8BF0E4636B230000DF111072FD41B
:1056A000884206DA04A9411849780829A8BF0F21C1
:1056B00000DA002104AA821800E0761E12F80139EF
:1056C000401E8B42F9D00F2904D104A941184A7811
:1056D000521C4A70002802D504AF761C2D1D36B22C
:1056E000701E0DD4C1190A783032D2B23A2A03DBC7
:1056F0009DF838303A3B9A18401E01F80129F2D53E
:10570000206B002840F1ED80701E2063E9E0DDE9A8
:1057100002010022002300F065FB3CBF81F0004144
:10572000CDE902012DB247F2975068434B49DFF8AB
:10573000309190FBF1F52DB2C5F1070ABAF1010FD6
:1057400090461CDBDDE902675FEACA7007D5424676
:105750004B4630463946FEF751FF06460F46404657
:10576000494642464B464FEA6A0AFEF747FFBAF1FE
:10577000000F80468946E7D1CDE9026724E0CAF1EF
:10578000000A0026374F14E05FEACA7007D5424688
:105790004B4630463946FEF731FF06460F46404637
:1057A000494642464B46FEF729FF4FEA6A0A8046C1
:1057B0008946BAF1000FE7D1DDE9020132463B46E6
:1057C00000F088FCCDE90201BBF1660F216BDFF828
:1057D00098900CBF05F10A0006204618142EA8BFA9
:1057E000132630208DF810000DF11107012E3DDB3E
:1057F000DDE90201FEF7EAFF07F1080104220A23AE
:10580000B0FBF3F303EB8307A0EB4700303001F864
:10581000010C0A20B3FBF0F000EB8007A3EB470379
:105820003033521E01F8023DE9D1083E012E01F14C
:105830000807DBDBDDE90201FEF7C8FFFEF7D0FE5B
:1058400002460B46DDE9020100F084FB00224B46D4
:10585000FEF7D4FECDE90201CAE700BFA086010031
:10586000000024400000F03F84D797410DF1110063
:10587000381A0DF1110702E0401E6D1E7F1C3978A9
:105880003029F9D0BBF1660F02D12DB2691C04E0BA
:10589000BBF1650F0CBF01210021226B8E1836B2BF
:1058A000B042B8BF064636B231001AD4814204DA9B
:1058B000C85D3528A8BF392000DA3020CA19521E29
:1058C00000E0761E12F80139491E8342F9D03928CA
:1058D00002D1C85D401CC855002902D57F1E761C28
:1058E0006D1C2DB29DF83810009533B23A46204613
:1058F00000F003F80FB0BDE8F08F2DE9F04786B057
:1059000006468A4690461D4600F02DFD012D406A50
:10591000376B90F8009002DA01250FF274284AF0F4
:105920002000BDF93840662808BF641C12D06728E3
:1059300076D114F1040F79DBBC4277DA96F838009F
:10594000641C000702D4BD42B8BF2F4624B23F1BDF
:1059500048BF002724B2F068B169012C21DA4A1C43
:1059600030230B54012F03DA96F83810090702D5BB
:1059700002F80090521CE742B8BF7C4224B2E719FB
:105980006142AF42B2617162B8BF3D46B3692DB2A8
:10599000F5612A464146181800F0C8F9781BB06234
:1059A000BBE00818A54216DA2A46414600F0BEF9C7
:1059B000B1696918601B012FB161706203DA96F852
:1059C0003800000705D5F06801F80090F069401C28
:1059D000F061B762A1E02246414600F0A7F9B06944
:1059E00020182D1B012F03DA96F83810090703D56C
:1059F000F16800F80190401CB0612DB2AF42B8BF11
:105A00003D46F068B3692DB22A4604EB0801181828
:105A100000F08CF9B0692818B061781B70627CE0E6
:105A2000BAF1610F14D14FF0700A16E0BD4204DAEA
:105A300096F83810090758BF2F467F1E48BF002729
:105A4000BAF1670F14BF4FF0450A4FF0650A04E042
:105A5000BAF1410F08BF4FF0500AB169F06818F869
:105A6000013B0B544A1C012F05DA96F83810090740
:105A700058BFB26115D502F80090531C012FB361D5
:105A80000FDB6D1E2DB2AF42B8BF3D462DB22A4688
:105A90004146181800F04AF9B0692818B061781B1F
:105AA0007062F068B1690918200081F800A004D480
:105AB0002B20487001F1020804E02D224A7001F108
:105AC00002086442002502AF08E00A2200A800F0A4
:105AD00063FC019807F8010B6D1C009C21B20129A1
